{"abi":[{"type":"constructor","inputs":[{"name":"collateralPrice_","type":"uint256","internalType":"uint256"}],"stateMutability":"nonpayable"},{"type":"function","name":"burnTokens","inputs":[{"name":"addr","type":"address","internalType":"address"},{"name":"amount","type":"uint256","internalType":"uint256"}],"outputs":[],"stateMutability":"nonpayable"},{"type":"function","name":"collateralPrice","inputs":[],"outputs":[{"name":"","type":"uint256","internalType":"uint256"}],"stateMutability":"view"},{"type":"function","name":"depositNFTCollateral","inputs":[{"name":"id","type":"uint256","internalType":"uint256"}],"outputs":[],"stateMutability":"nonpayable"},{"type":"function","name":"getLoan","inputs":[{"name":"amount","type":"uint256","internalType":"uint256"}],"outputs":[],"stateMutability":"nonpayable"},{"type":"function","name":"idsCollateral","inputs":[{"name":"","type":"uint256","internalType":"uint256"}],"outputs":[{"name":"","type":"address","internalType":"address"}],"stateMutability":"view"},{"type":"function","name":"initialize","inputs":[{"name":"token_","type":"address","internalType":"address"},{"name":"nft_","type":"address","internalType":"address"}],"outputs":[],"stateMutability":"nonpayable"},{"type":"function","name":"mint","inputs":[{"name":"amount","type":"uint256","internalType":"uint256"}],"outputs":[],"stateMutability":"nonpayable"},{"type":"function","name":"multicall","inputs":[{"name":"data","type":"bytes[]","internalType":"bytes[]"}],"outputs":[{"name":"results","type":"bytes[]","internalType":"bytes[]"}],"stateMutability":"payable"},{"type":"function","name":"nft","inputs":[],"outputs":[{"name":"","type":"address","internalType":"contract HalbornNFT"}],"stateMutability":"view"},{"type":"function","name":"onERC721Received","inputs":[{"name":"","type":"address","internalType":"address"},{"name":"","type":"address","internalType":"address"},{"name":"","type":"uint256","internalType":"uint256"},{"name":"","type":"bytes","internalType":"bytes"}],"outputs":[{"name":"","type":"bytes4","internalType":"bytes4"}],"stateMutability":"pure"},{"type":"function","name":"proxiableUUID","inputs":[],"outputs":[{"name":"","type":"bytes32","internalType":"bytes32"}],"stateMutability":"view"},{"type":"function","name":"returnLoan","inputs":[{"name":"amount","type":"uint256","internalType":"uint256"}],"outputs":[],"stateMutability":"nonpayable"},{"type":"function","name":"token","inputs":[],"outputs":[{"name":"","type":"address","internalType":"contract HalbornToken"}],"stateMutability":"view"},{"type":"function","name":"totalCollateral","inputs":[{"name":"","type":"address","internalType":"address"}],"outputs":[{"name":"","type":"uint256","internalType":"uint256"}],"stateMutability":"view"},{"type":"function","name":"upgradeTo","inputs":[{"name":"newImplementation","type":"address","internalType":"address"}],"outputs":[],"stateMutability":"nonpayable"},{"type":"function","name":"upgradeToAndCall","inputs":[{"name":"newImplementation","type":"address","internalType":"address"},{"name":"data","type":"bytes","internalType":"bytes"}],"outputs":[],"stateMutability":"payable"},{"type":"function","name":"usedCollateral","inputs":[{"name":"","type":"address","internalType":"address"}],"outputs":[{"name":"","type":"uint256","internalType":"uint256"}],"stateMutability":"view"},{"type":"function","name":"withdrawCollateral","inputs":[{"name":"id","type":"uint256","internalType":"uint256"}],"outputs":[],"stateMutability":"nonpayable"},{"type":"event","name":"AdminChanged","inputs":[{"name":"previousAdmin","type":"address","indexed":false,"internalType":"address"},{"name":"newAdmin","type":"address","indexed":false,"internalType":"address"}],"anonymous":false},{"type":"event","name":"BeaconUpgraded","inputs":[{"name":"beacon","type":"address","indexed":true,"internalType":"address"}],"anonymous":false},{"type":"event","name":"Initialized","inputs":[{"name":"version","type":"uint8","indexed":false,"internalType":"uint8"}],"anonymous":false},{"type":"event","name":"Upgraded","inputs":[{"name":"implementation","type":"address","indexed":true,"internalType":"address"}],"anonymous":false}],"bytecode":{"object":"0x60c06040523060805234801561001457600080fd5b506040516117473803806117478339810160408190526100339161003b565b60a052610054565b60006020828403121561004d57600080fd5b5051919050565b60805160a0516116ab61009c6000396000818161025a0152610a500152600081816104400152818161048901528181610662015281816106a2015261082401526116ab6000f3fe6080604052600436106101095760003560e01c80636112fe2e11610095578063a0712d6811610064578063a0712d6814610316578063ac9650d814610336578063d52c1db214610356578063e91261541461038c578063fc0c546a146103ac57600080fd5b80636112fe2e1461027c578063647fd8ef1461029c5780637e059b22146102bc57806390f20d15146102e957600080fd5b8063485cc955116100dc578063485cc955146101d25780634f1ef286146101f2578063504006ca1461020557806352d1902d146102255780635891de721461024857600080fd5b80630d1118ce1461010e578063150b7a02146101305780633659cfe61461017a57806347ccca021461019a575b600080fd5b34801561011a57600080fd5b5061012e61012936600461113d565b6103cc565b005b34801561013c57600080fd5b5061015c61014b366004611169565b630a85bd0160e11b95945050505050565b6040516001600160e01b031990911681526020015b60405180910390f35b34801561018657600080fd5b5061012e610195366004611208565b610436565b3480156101a657600080fd5b506066546101ba906001600160a01b031681565b6040516001600160a01b039091168152602001610171565b3480156101de57600080fd5b5061012e6101ed366004611225565b610515565b61012e610200366004611274565b610658565b34801561021157600080fd5b5061012e610220366004611338565b61071f565b34801561023157600080fd5b5061023a610817565b604051908152602001610171565b34801561025457600080fd5b5061023a7f000000000000000000000000000000000000000000000000000000000000000081565b34801561028857600080fd5b5061012e610297366004611338565b6108ca565b3480156102a857600080fd5b5061012e6102b7366004611338565b610907565b3480156102c857600080fd5b5061023a6102d7366004611208565b60676020526000908152604090205481565b3480156102f557600080fd5b5061023a610304366004611208565b60686020526000908152604090205481565b34801561032257600080fd5b5061012e610331366004611338565b610aa4565b610349610344366004611351565b610adb565b6040516101719190611416565b34801561036257600080fd5b506101ba610371366004611338565b6069602052600090815260409020546001600160a01b031681565b34801561039857600080fd5b5061012e6103a7366004611338565b610bd1565b3480156103b857600080fd5b506065546101ba906001600160a01b031681565b606554604051633477cc1b60e21b81526001600160a01b038481166004830152602482018490529091169063d1df306c90604401600060405180830381600087803b15801561041a57600080fd5b505af115801561042e573d6000803e3d6000fd5b505050505050565b6001600160a01b037f00000000000000000000000000000000000000000000000000000000000000001630036104875760405162461bcd60e51b815260040161047e90611478565b60405180910390fd5b7f00000000000000000000000000000000000000000000000000000000000000006001600160a01b03166104d060008051602061162f833981519152546001600160a01b031690565b6001600160a01b0316146104f65760405162461bcd60e51b815260040161047e906114c4565b6040805160008082526020820190925261051291839190610cfa565b50565b600054610100900460ff16158080156105355750600054600160ff909116105b8061054f5750303b15801561054f575060005460ff166001145b6105b25760405162461bcd60e51b815260206004820152602e60248201527f496e697469616c697a61626c653a20636f6e747261637420697320616c72656160448201526d191e481a5b9a5d1a585b1a5e995960921b606482015260840161047e565b6000805460ff1916600117905580156105d5576000805461ff0019166101001790555b6105dd610e65565b606580546001600160a01b038086166001600160a01b03199283161790925560668054928516929091169190911790558015610653576000805461ff0019169055604051600181527f7f26b83ff96e1f2b6a682f133852f6798a09c465da95921460cefb38474024989060200160405180910390a15b505050565b6001600160a01b037f00000000000000000000000000000000000000000000000000000000000000001630036106a05760405162461bcd60e51b815260040161047e90611478565b7f00000000000000000000000000000000000000000000000000000000000000006001600160a01b03166106e960008051602061162f833981519152546001600160a01b031690565b6001600160a01b03161461070f5760405162461bcd60e51b815260040161047e906114c4565b61071b82826001610cfa565b5050565b33600090815260686020908152604080832054606790925290912054829161074691611526565b1061078b5760405162461bcd60e51b8152602060048201526015602482015274139bdd08195b9bdd59da0818dbdb1b185d195c985b605a1b604482015260640161047e565b33600090815260686020526040812080548392906107aa908490611539565b9091555050606554604051630f38ca0d60e31b8152336004820152602481018390526001600160a01b03909116906379c65068906044015b600060405180830381600087803b1580156107fc57600080fd5b505af1158015610810573d6000803e3d6000fd5b5050505050565b6000306001600160a01b037f000000000000000000000000000000000000000000000000000000000000000016146108b75760405162461bcd60e51b815260206004820152603860248201527f555550535570677261646561626c653a206d757374206e6f742062652063616c60448201527f6c6564207468726f7567682064656c656761746563616c6c0000000000000000606482015260840161047e565b5060008051602061162f83398151915290565b606654604051632142170760e11b8152306004820152336024820152604481018390526001600160a01b03909116906342842e0e906064016107e2565b6066546040516331a9108f60e11b81526004810183905233916001600160a01b031690636352211e90602401602060405180830381865afa158015610950573d6000803e3d6000fd5b505050506040513d601f19601f82011682018060405250810190610974919061154c565b6001600160a01b0316146109d55760405162461bcd60e51b815260206004820152602260248201527f43616c6c6572206973206e6f7420746865206f776e6572206f6620746865204e604482015261119560f21b606482015260840161047e565b606654604051632142170760e11b8152336004820152306024820152604481018390526001600160a01b03909116906342842e0e90606401600060405180830381600087803b158015610a2757600080fd5b505af1158015610a3b573d6000803e3d6000fd5b505033600090815260676020526040812080547f00000000000000000000000000000000000000000000000000000000000000009450909250610a7f908490611539565b9091555050600090815260696020526040902080546001600160a01b03191633179055565b606554604051630f38ca0d60e31b8152336004820152602481018390526001600160a01b03909116906379c65068906044016107e2565b60608167ffffffffffffffff811115610af657610af661125e565b604051908082528060200260200182016040528015610b2957816020015b6060815260200190600190039081610b145790505b50905060005b82811015610bc957610b9930858584818110610b4d57610b4d611569565b9050602002810190610b5f919061157f565b8080601f016020809104026020016040519081016040528093929190818152602001838380828437600092019190915250610ed292505050565b828281518110610bab57610bab611569565b60200260200101819052508080610bc1906115cd565b915050610b2f565b505b92915050565b33600090815260686020526040902054811115610c285760405162461bcd60e51b8152602060048201526015602482015274139bdd08195b9bdd59da0818dbdb1b185d195c985b605a1b604482015260640161047e565b6065546040516370a0823160e01b815233600482015282916001600160a01b0316906370a0823190602401602060405180830381865afa158015610c70573d6000803e3d6000fd5b505050506040513d601f19601f82011682018060405250810190610c9491906115e6565b1015610c9f57600080fd5b3360009081526068602052604081208054839290610cbe908490611539565b9091555050606554604051633477cc1b60e21b8152336004820152602481018390526001600160a01b039091169063d1df306c906044016107e2565b7f4910fdfa16fed3260ed0e7147f7cc6da11a60208b5b9406d12a635614ffd91435460ff1615610d2d5761065383610efe565b826001600160a01b03166352d1902d6040518163ffffffff1660e01b8152600401602060405180830381865afa925050508015610d87575060408051601f3d908101601f19168201909252610d84918101906115e6565b60015b610dea5760405162461bcd60e51b815260206004820152602e60248201527f45524331393637557067726164653a206e657720696d706c656d656e7461746960448201526d6f6e206973206e6f74205555505360901b606482015260840161047e565b60008051602061162f8339815191528114610e595760405162461bcd60e51b815260206004820152602960248201527f45524331393637557067726164653a20756e737570706f727465642070726f786044820152681a58589b195555525160ba1b606482015260840161047e565b50610653838383610f9a565b600054610100900460ff16610ed05760405162461bcd60e51b815260206004820152602b60248201527f496e697469616c697a61626c653a20636f6e7472616374206973206e6f74206960448201526a6e697469616c697a696e6760a81b606482015260840161047e565b565b6060610ef7838360405180606001604052806027815260200161164f60279139610fc5565b9392505050565b6001600160a01b0381163b610f6b5760405162461bcd60e51b815260206004820152602d60248201527f455243313936373a206e657720696d706c656d656e746174696f6e206973206e60448201526c1bdd08184818dbdb9d1c9858dd609a1b606482015260840161047e565b60008051602061162f83398151915280546001600160a01b0319166001600160a01b0392909216919091179055565b610fa38361103d565b600082511180610fb05750805b1561065357610fbf8383610ed2565b50505050565b6060600080856001600160a01b031685604051610fe291906115ff565b600060405180830381855af49150503d806000811461101d576040519150601f19603f3d011682016040523d82523d6000602084013e611022565b606091505b50915091506110338683838761107d565b9695505050505050565b61104681610efe565b6040516001600160a01b038216907fbc7cd75a20ee27fd9adebab32041f755214dbc6bffa90cc0225b39da2e5c2d3b90600090a250565b606083156110ec5782516000036110e5576001600160a01b0385163b6110e55760405162461bcd60e51b815260206004820152601d60248201527f416464726573733a2063616c6c20746f206e6f6e2d636f6e7472616374000000604482015260640161047e565b50816110f6565b6110f683836110fe565b949350505050565b81511561110e5781518083602001fd5b8060405162461bcd60e51b815260040161047e919061161b565b6001600160a01b038116811461051257600080fd5b6000806040838503121561115057600080fd5b823561115b81611128565b946020939093013593505050565b60008060008060006080868803121561118157600080fd5b853561118c81611128565b9450602086013561119c81611128565b935060408601359250606086013567ffffffffffffffff808211156111c057600080fd5b818801915088601f8301126111d457600080fd5b8135818111156111e357600080fd5b8960208285010111156111f557600080fd5b9699959850939650602001949392505050565b60006020828403121561121a57600080fd5b8135610ef781611128565b6000806040838503121561123857600080fd5b823561124381611128565b9150602083013561125381611128565b809150509250929050565b634e487b7160e01b600052604160045260246000fd5b6000806040838503121561128757600080fd5b823561129281611128565b9150602083013567ffffffffffffffff808211156112af57600080fd5b818501915085601f8301126112c357600080fd5b8135818111156112d5576112d561125e565b604051601f8201601f19908116603f011681019083821181831017156112fd576112fd61125e565b8160405282815288602084870101111561131657600080fd5b8260208601602083013760006020848301015280955050505050509250929050565b60006020828403121561134a57600080fd5b5035919050565b6000806020838503121561136457600080fd5b823567ffffffffffffffff8082111561137c57600080fd5b818501915085601f83011261139057600080fd5b81358181111561139f57600080fd5b8660208260051b85010111156113b457600080fd5b60209290920196919550909350505050565b60005b838110156113e15781810151838201526020016113c9565b50506000910152565b600081518084526114028160208601602086016113c6565b601f01601f19169290920160200192915050565b6000602080830181845280855180835260408601915060408160051b870101925083870160005b8281101561146b57603f198886030184526114598583516113ea565b9450928501929085019060010161143d565b5092979650505050505050565b6020808252602c908201527f46756e6374696f6e206d7573742062652063616c6c6564207468726f7567682060408201526b19195b1959d85d1958d85b1b60a21b606082015260800190565b6020808252602c908201527f46756e6374696f6e206d7573742062652063616c6c6564207468726f7567682060408201526b6163746976652070726f787960a01b606082015260800190565b634e487b7160e01b600052601160045260246000fd5b81810381811115610bcb57610bcb611510565b80820180821115610bcb57610bcb611510565b60006020828403121561155e57600080fd5b8151610ef781611128565b634e487b7160e01b600052603260045260246000fd5b6000808335601e1984360301811261159657600080fd5b83018035915067ffffffffffffffff8211156115b157600080fd5b6020019150368190038213156115c657600080fd5b9250929050565b6000600182016115df576115df611510565b5060010190565b6000602082840312156115f857600080fd5b5051919050565b600082516116118184602087016113c6565b9190910192915050565b602081526000610ef760208301846113ea56fe360894a13ba1a3210667c828492db98dca3e2076cc3735a920a3ca505d382bbc416464726573733a206c6f772d6c6576656c2064656c65676174652063616c6c206661696c6564a26469706673582212207f6e4330c61b209424d4feb4c066acae1b90a7b53629d67b7a31be63a736d0f264736f6c63430008150033","linkReferences":{}},"methodIdentifiers":{"burnTokens(address,uint256)":"0d1118ce","collateralPrice()":"5891de72","depositNFTCollateral(uint256)":"647fd8ef","getLoan(uint256)":"504006ca","idsCollateral(uint256)":"d52c1db2","initialize(address,address)":"485cc955","mint(uint256)":"a0712d68","multicall(bytes[])":"ac9650d8","nft()":"47ccca02","onERC721Received(address,address,uint256,bytes)":"150b7a02","proxiableUUID()":"52d1902d","returnLoan(uint256)":"e9126154","token()":"fc0c546a","totalCollateral(address)":"7e059b22","upgradeTo(address)":"3659cfe6","upgradeToAndCall(address,bytes)":"4f1ef286","usedCollateral(address)":"90f20d15","withdrawCollateral(uint256)":"6112fe2e"},"id":48}