{"abi":[{"type":"function","name":"approve","inputs":[{"name":"to","type":"address","internalType":"address"},{"name":"tokenId","type":"uint256","internalType":"uint256"}],"outputs":[],"stateMutability":"nonpayable"},{"type":"function","name":"balanceOf","inputs":[{"name":"owner","type":"address","internalType":"address"}],"outputs":[{"name":"","type":"uint256","internalType":"uint256"}],"stateMutability":"view"},{"type":"function","name":"getApproved","inputs":[{"name":"tokenId","type":"uint256","internalType":"uint256"}],"outputs":[{"name":"","type":"address","internalType":"address"}],"stateMutability":"view"},{"type":"function","name":"idCounter","inputs":[],"outputs":[{"name":"","type":"uint256","internalType":"uint256"}],"stateMutability":"view"},{"type":"function","name":"initialize","inputs":[{"name":"merkleRoot_","type":"bytes32","internalType":"bytes32"},{"name":"price_","type":"uint256","internalType":"uint256"}],"outputs":[],"stateMutability":"nonpayable"},{"type":"function","name":"isApprovedForAll","inputs":[{"name":"owner","type":"address","internalType":"address"},{"name":"operator","type":"address","internalType":"address"}],"outputs":[{"name":"","type":"bool","internalType":"bool"}],"stateMutability":"view"},{"type":"function","name":"merkleRoot","inputs":[],"outputs":[{"name":"","type":"bytes32","internalType":"bytes32"}],"stateMutability":"view"},{"type":"function","name":"mintAirdrops","inputs":[{"name":"id","type":"uint256","internalType":"uint256"},{"name":"merkleProof","type":"bytes32[]","internalType":"bytes32[]"}],"outputs":[],"stateMutability":"nonpayable"},{"type":"function","name":"mintBuyWithETH","inputs":[],"outputs":[],"stateMutability":"payable"},{"type":"function","name":"multicall","inputs":[{"name":"data","type":"bytes[]","internalType":"bytes[]"}],"outputs":[{"name":"results","type":"bytes[]","internalType":"bytes[]"}],"stateMutability":"payable"},{"type":"function","name":"name","inputs":[],"outputs":[{"name":"","type":"string","internalType":"string"}],"stateMutability":"view"},{"type":"function","name":"owner","inputs":[],"outputs":[{"name":"","type":"address","internalType":"address"}],"stateMutability":"view"},{"type":"function","name":"ownerOf","inputs":[{"name":"tokenId","type":"uint256","internalType":"uint256"}],"outputs":[{"name":"","type":"address","internalType":"address"}],"stateMutability":"view"},{"type":"function","name":"price","inputs":[],"outputs":[{"name":"","type":"uint256","internalType":"uint256"}],"stateMutability":"view"},{"type":"function","name":"proxiableUUID","inputs":[],"outputs":[{"name":"","type":"bytes32","internalType":"bytes32"}],"stateMutability":"view"},{"type":"function","name":"renounceOwnership","inputs":[],"outputs":[],"stateMutability":"nonpayable"},{"type":"function","name":"safeTransferFrom","inputs":[{"name":"from","type":"address","internalType":"address"},{"name":"to","type":"address","internalType":"address"},{"name":"tokenId","type":"uint256","internalType":"uint256"}],"outputs":[],"stateMutability":"nonpayable"},{"type":"function","name":"safeTransferFrom","inputs":[{"name":"from","type":"address","internalType":"address"},{"name":"to","type":"address","internalType":"address"},{"name":"tokenId","type":"uint256","internalType":"uint256"},{"name":"data","type":"bytes","internalType":"bytes"}],"outputs":[],"stateMutability":"nonpayable"},{"type":"function","name":"setApprovalForAll","inputs":[{"name":"operator","type":"address","internalType":"address"},{"name":"approved","type":"bool","internalType":"bool"}],"outputs":[],"stateMutability":"nonpayable"},{"type":"function","name":"setMerkleRoot","inputs":[{"name":"merkleRoot_","type":"bytes32","internalType":"bytes32"}],"outputs":[],"stateMutability":"nonpayable"},{"type":"function","name":"setPrice","inputs":[{"name":"price_","type":"uint256","internalType":"uint256"}],"outputs":[],"stateMutability":"nonpayable"},{"type":"function","name":"supportsInterface","inputs":[{"name":"interfaceId","type":"bytes4","internalType":"bytes4"}],"outputs":[{"name":"","type":"bool","internalType":"bool"}],"stateMutability":"view"},{"type":"function","name":"symbol","inputs":[],"outputs":[{"name":"","type":"string","internalType":"string"}],"stateMutability":"view"},{"type":"function","name":"tokenURI","inputs":[{"name":"tokenId","type":"uint256","internalType":"uint256"}],"outputs":[{"name":"","type":"string","internalType":"string"}],"stateMutability":"view"},{"type":"function","name":"transferFrom","inputs":[{"name":"from","type":"address","internalType":"address"},{"name":"to","type":"address","internalType":"address"},{"name":"tokenId","type":"uint256","internalType":"uint256"}],"outputs":[],"stateMutability":"nonpayable"},{"type":"function","name":"transferOwnership","inputs":[{"name":"newOwner","type":"address","internalType":"address"}],"outputs":[],"stateMutability":"nonpayable"},{"type":"function","name":"upgradeTo","inputs":[{"name":"newImplementation","type":"address","internalType":"address"}],"outputs":[],"stateMutability":"nonpayable"},{"type":"function","name":"upgradeToAndCall","inputs":[{"name":"newImplementation","type":"address","internalType":"address"},{"name":"data","type":"bytes","internalType":"bytes"}],"outputs":[],"stateMutability":"payable"},{"type":"function","name":"withdrawETH","inputs":[{"name":"amount","type":"uint256","internalType":"uint256"}],"outputs":[],"stateMutability":"nonpayable"},{"type":"event","name":"AdminChanged","inputs":[{"name":"previousAdmin","type":"address","indexed":false,"internalType":"address"},{"name":"newAdmin","type":"address","indexed":false,"internalType":"address"}],"anonymous":false},{"type":"event","name":"Approval","inputs":[{"name":"owner","type":"address","indexed":true,"internalType":"address"},{"name":"approved","type":"address","indexed":true,"internalType":"address"},{"name":"tokenId","type":"uint256","indexed":true,"internalType":"uint256"}],"anonymous":false},{"type":"event","name":"ApprovalForAll","inputs":[{"name":"owner","type":"address","indexed":true,"internalType":"address"},{"name":"operator","type":"address","indexed":true,"internalType":"address"},{"name":"approved","type":"bool","indexed":false,"internalType":"bool"}],"anonymous":false},{"type":"event","name":"BeaconUpgraded","inputs":[{"name":"beacon","type":"address","indexed":true,"internalType":"address"}],"anonymous":false},{"type":"event","name":"Initialized","inputs":[{"name":"version","type":"uint8","indexed":false,"internalType":"uint8"}],"anonymous":false},{"type":"event","name":"OwnershipTransferred","inputs":[{"name":"previousOwner","type":"address","indexed":true,"internalType":"address"},{"name":"newOwner","type":"address","indexed":true,"internalType":"address"}],"anonymous":false},{"type":"event","name":"Transfer","inputs":[{"name":"from","type":"address","indexed":true,"internalType":"address"},{"name":"to","type":"address","indexed":true,"internalType":"address"},{"name":"tokenId","type":"uint256","indexed":true,"internalType":"uint256"}],"anonymous":false},{"type":"event","name":"Upgraded","inputs":[{"name":"implementation","type":"address","indexed":true,"internalType":"address"}],"anonymous":false}],"bytecode":{"object":"0x60a06040523060805234801561001457600080fd5b506080516127e561004c600039600081816107cd0152818161080d015281816108c701528181610907015261099a01526127e56000f3fe6080604052600436106101c25760003560e01c8063715018a6116100f7578063a22cb46511610095578063e985e9c511610064578063e985e9c5146104cd578063eb08ab2814610516578063f14210a61461052d578063f2fde38b1461054d57600080fd5b8063a22cb4651461044d578063ac9650d81461046d578063b88d4fde1461048d578063c87b56dd146104ad57600080fd5b80638da5cb5b116100d15780638da5cb5b146103e357806391b7f5ed1461040157806395d89b4114610421578063a035b1fe1461043657600080fd5b8063715018a61461038d5780637cb64759146103a257806384296eb7146103c357600080fd5b806342842e0e116101645780635b36c66b1161013e5780635b36c66b146103255780636352211e14610345578063658a72271461036557806370a082311461036d57600080fd5b806342842e0e146102dd5780634f1ef286146102fd57806352d1902d1461031057600080fd5b8063095ea7b3116101a0578063095ea7b31461025657806323b872dd146102785780632eb4a7ab146102985780633659cfe6146102bd57600080fd5b806301ffc9a7146101c757806306fdde03146101fc578063081812fc1461021e575b600080fd5b3480156101d357600080fd5b506101e76101e2366004611ec5565b61056d565b60405190151581526020015b60405180910390f35b34801561020857600080fd5b506102116105bf565b6040516101f39190611f32565b34801561022a57600080fd5b5061023e610239366004611f45565b610651565b6040516001600160a01b0390911681526020016101f3565b34801561026257600080fd5b50610276610271366004611f7a565b610678565b005b34801561028457600080fd5b50610276610293366004611fa4565b610792565b3480156102a457600080fd5b506102af61012d5481565b6040519081526020016101f3565b3480156102c957600080fd5b506102766102d8366004611fe0565b6107c3565b3480156102e957600080fd5b506102766102f8366004611fa4565b6108a2565b61027661030b36600461209e565b6108bd565b34801561031c57600080fd5b506102af61098d565b34801561033157600080fd5b506102766103403660046120ec565b610a40565b34801561035157600080fd5b5061023e610360366004611f45565b610bbe565b610276610c1e565b34801561037957600080fd5b506102af610388366004611fe0565b610c88565b34801561039957600080fd5b50610276610d0e565b3480156103ae57600080fd5b506102766103bd366004611f45565b61012d55565b3480156103cf57600080fd5b506102766103de36600461215a565b610d20565b3480156103ef57600080fd5b5060fb546001600160a01b031661023e565b34801561040d57600080fd5b5061027661041c366004611f45565b610e2d565b34801561042d57600080fd5b50610211610e7f565b34801561044257600080fd5b506102af61012e5481565b34801561045957600080fd5b506102766104683660046121a6565b610e8e565b61048061047b3660046121e2565b610e99565b6040516101f39190612224565b34801561049957600080fd5b506102766104a8366004612286565b610f8e565b3480156104b957600080fd5b506102116104c8366004611f45565b610fc6565b3480156104d957600080fd5b506101e76104e83660046122ee565b6001600160a01b039182166000908152606a6020908152604080832093909416825291909152205460ff1690565b34801561052257600080fd5b506102af61012f5481565b34801561053957600080fd5b50610276610548366004611f45565b61103a565b34801561055957600080fd5b50610276610568366004611fe0565b61107c565b60006001600160e01b031982166380ac58cd60e01b148061059e57506001600160e01b03198216635b5e139f60e01b145b806105b957506301ffc9a760e01b6001600160e01b03198316145b92915050565b6060606580546105ce90612321565b80601f01602080910402602001604051908101604052809291908181526020018280546105fa90612321565b80156106475780601f1061061c57610100808354040283529160200191610647565b820191906000526020600020905b81548152906001019060200180831161062a57829003601f168201915b5050505050905090565b600061065c826110f2565b506000908152606960205260409020546001600160a01b031690565b600061068382610bbe565b9050806001600160a01b0316836001600160a01b0316036106f55760405162461bcd60e51b815260206004820152602160248201527f4552433732313a20617070726f76616c20746f2063757272656e74206f776e656044820152603960f91b60648201526084015b60405180910390fd5b336001600160a01b0382161480610711575061071181336104e8565b6107835760405162461bcd60e51b815260206004820152603d60248201527f4552433732313a20617070726f76652063616c6c6572206973206e6f7420746f60448201527f6b656e206f776e6572206f7220617070726f76656420666f7220616c6c00000060648201526084016106ec565b61078d8383611151565b505050565b61079c33826111bf565b6107b85760405162461bcd60e51b81526004016106ec9061235b565b61078d83838361123e565b6001600160a01b037f000000000000000000000000000000000000000000000000000000000000000016300361080b5760405162461bcd60e51b81526004016106ec906123a8565b7f00000000000000000000000000000000000000000000000000000000000000006001600160a01b0316610854600080516020612769833981519152546001600160a01b031690565b6001600160a01b03161461087a5760405162461bcd60e51b81526004016106ec906123f4565b610883816113a2565b6040805160008082526020820190925261089f918391906113aa565b50565b61078d83838360405180602001604052806000815250610f8e565b6001600160a01b037f00000000000000000000000000000000000000000000000000000000000000001630036109055760405162461bcd60e51b81526004016106ec906123a8565b7f00000000000000000000000000000000000000000000000000000000000000006001600160a01b031661094e600080516020612769833981519152546001600160a01b031690565b6001600160a01b0316146109745760405162461bcd60e51b81526004016106ec906123f4565b61097d826113a2565b610989828260016113aa565b5050565b6000306001600160a01b037f00000000000000000000000000000000000000000000000000000000000000001614610a2d5760405162461bcd60e51b815260206004820152603860248201527f555550535570677261646561626c653a206d757374206e6f742062652063616c60448201527f6c6564207468726f7567682064656c656761746563616c6c000000000000000060648201526084016106ec565b5060008051602061276983398151915290565b600054610100900460ff1615808015610a605750600054600160ff909116105b80610a7a5750303b158015610a7a575060005460ff166001145b610add5760405162461bcd60e51b815260206004820152602e60248201527f496e697469616c697a61626c653a20636f6e747261637420697320616c72656160448201526d191e481a5b9a5d1a585b1a5e995960921b60648201526084016106ec565b6000805460ff191660011790558015610b00576000805461ff0019166101001790555b610b496040518060400160405280600b81526020016a12185b189bdc9b8813919560aa1b815250604051806040016040528060048152602001631213919560e21b815250611515565b610b51611546565b610b5961156d565b610b61611546565b610b6b8361012d55565b610b7482610e2d565b801561078d576000805461ff0019169055604051600181527f7f26b83ff96e1f2b6a682f133852f6798a09c465da95921460cefb38474024989060200160405180910390a1505050565b6000818152606760205260408120546001600160a01b0316806105b95760405162461bcd60e51b8152602060048201526018602482015277115490cdcc8c4e881a5b9d985b1a59081d1bdad95b88125160421b60448201526064016106ec565b61012e543414610c605760405162461bcd60e51b815260206004820152600d60248201526c496e76616c696420507269636560981b60448201526064016106ec565b61012f805460010190819055604080516020810190915260008152610c8691339161159c565b565b60006001600160a01b038216610cf25760405162461bcd60e51b815260206004820152602960248201527f4552433732313a2061646472657373207a65726f206973206e6f7420612076616044820152683634b21037bbb732b960b91b60648201526084016106ec565b506001600160a01b031660009081526068602052604090205490565b610d166115cf565b610c866000611629565b6000838152606760205260409020546001600160a01b0316610d7b5760405162461bcd60e51b8152602060048201526014602482015273151bdad95b88185b1c9958591e481b5a5b9d195960621b60448201526064016106ec565b6040516bffffffffffffffffffffffff193360601b166020820152603481018490526000906054016040516020818303038152906040528051906020012090506000610dcc848461012d548561167b565b905080610e0c5760405162461bcd60e51b815260206004820152600e60248201526d24b73b30b634b210383937b7b31760911b60448201526064016106ec565b610e2633866040518060200160405280600081525061159c565b5050505050565b610e356115cf565b80600003610e795760405162461bcd60e51b8152602060048201526011602482015270050726963652063616e6e6f74206265203607c1b60448201526064016106ec565b61012e55565b6060606680546105ce90612321565b610989338383611693565b60608167ffffffffffffffff811115610eb457610eb4611ffb565b604051908082528060200260200182016040528015610ee757816020015b6060815260200190600190039081610ed25790505b50905060005b82811015610f8757610f5730858584818110610f0b57610f0b612440565b9050602002810190610f1d9190612456565b8080601f01602080910402602001604051908101604052809392919081815260200183838082843760009201919091525061176192505050565b828281518110610f6957610f69612440565b60200260200101819052508080610f7f9061249d565b915050610eed565b5092915050565b610f9833836111bf565b610fb45760405162461bcd60e51b81526004016106ec9061235b565b610fc084848484611786565b50505050565b6060610fd1826110f2565b6000610fe860408051602081019091526000815290565b905060008151116110085760405180602001604052806000815250611033565b80611012846117b9565b6040516020016110239291906124c4565b6040516020818303038152906040525b9392505050565b6110426115cf565b60fb546040516001600160a01b039091169082156108fc029083906000818181858888f19350505050158015610989573d6000803e3d6000fd5b6110846115cf565b6001600160a01b0381166110e95760405162461bcd60e51b815260206004820152602660248201527f4f776e61626c653a206e6577206f776e657220697320746865207a65726f206160448201526564647265737360d01b60648201526084016106ec565b61089f81611629565b6000818152606760205260409020546001600160a01b031661089f5760405162461bcd60e51b8152602060048201526018602482015277115490cdcc8c4e881a5b9d985b1a59081d1bdad95b88125160421b60448201526064016106ec565b600081815260696020526040902080546001600160a01b0319166001600160a01b038416908117909155819061118682610bbe565b6001600160a01b03167f8c5be1e5ebec7d5bd14f71427d1e84f3dd0314c0f7b2291e5b200ac8c7c3b92560405160405180910390a45050565b6000806111cb83610bbe565b9050806001600160a01b0316846001600160a01b0316148061121257506001600160a01b038082166000908152606a602090815260408083209388168352929052205460ff165b806112365750836001600160a01b031661122b84610651565b6001600160a01b0316145b949350505050565b826001600160a01b031661125182610bbe565b6001600160a01b0316146112775760405162461bcd60e51b81526004016106ec906124f3565b6001600160a01b0382166112d95760405162461bcd60e51b8152602060048201526024808201527f4552433732313a207472616e7366657220746f20746865207a65726f206164646044820152637265737360e01b60648201526084016106ec565b826001600160a01b03166112ec82610bbe565b6001600160a01b0316146113125760405162461bcd60e51b81526004016106ec906124f3565b600081815260696020908152604080832080546001600160a01b03199081169091556001600160a01b0387811680865260688552838620805460001901905590871680865283862080546001019055868652606790945282852080549092168417909155905184937fddf252ad1be2c89b69c2b068fc378daa952ba7f163c4a11628f55a4df523b3ef91a4505050565b61089f6115cf565b7f4910fdfa16fed3260ed0e7147f7cc6da11a60208b5b9406d12a635614ffd91435460ff16156113dd5761078d8361184c565b826001600160a01b03166352d1902d6040518163ffffffff1660e01b8152600401602060405180830381865afa925050508015611437575060408051601f3d908101601f1916820190925261143491810190612538565b60015b61149a5760405162461bcd60e51b815260206004820152602e60248201527f45524331393637557067726164653a206e657720696d706c656d656e7461746960448201526d6f6e206973206e6f74205555505360901b60648201526084016106ec565b60008051602061276983398151915281146115095760405162461bcd60e51b815260206004820152602960248201527f45524331393637557067726164653a20756e737570706f727465642070726f786044820152681a58589b195555525160ba1b60648201526084016106ec565b5061078d8383836118e8565b600054610100900460ff1661153c5760405162461bcd60e51b81526004016106ec90612551565b610989828261190d565b600054610100900460ff16610c865760405162461bcd60e51b81526004016106ec90612551565b600054610100900460ff166115945760405162461bcd60e51b81526004016106ec90612551565b610c8661194d565b6115a6838361197d565b6115b36000848484611b08565b61078d5760405162461bcd60e51b81526004016106ec9061259c565b60fb546001600160a01b03163314610c865760405162461bcd60e51b815260206004820181905260248201527f4f776e61626c653a2063616c6c6572206973206e6f7420746865206f776e657260448201526064016106ec565b60fb80546001600160a01b038381166001600160a01b0319831681179093556040519116919082907f8be0079c531659141344cd1fd0a4f28419497f9722a3daafe3b4186f6b6457e090600090a35050565b600082611689868685611c06565b1495945050505050565b816001600160a01b0316836001600160a01b0316036116f45760405162461bcd60e51b815260206004820152601960248201527f4552433732313a20617070726f766520746f2063616c6c65720000000000000060448201526064016106ec565b6001600160a01b038381166000818152606a6020908152604080832094871680845294825291829020805460ff191686151590811790915591519182527f17307eab39ab6107e8899845ad3d59bd9653f200f220920489ca2b5937696c31910160405180910390a3505050565b6060611033838360405180606001604052806027815260200161278960279139611c52565b61179184848461123e565b61179d84848484611b08565b610fc05760405162461bcd60e51b81526004016106ec9061259c565b606060006117c683611cca565b600101905060008167ffffffffffffffff8111156117e6576117e6611ffb565b6040519080825280601f01601f191660200182016040528015611810576020820181803683370190505b5090508181016020015b600019016f181899199a1a9b1b9c1cb0b131b232b360811b600a86061a8153600a850494508461181a57509392505050565b6001600160a01b0381163b6118b95760405162461bcd60e51b815260206004820152602d60248201527f455243313936373a206e657720696d706c656d656e746174696f6e206973206e60448201526c1bdd08184818dbdb9d1c9858dd609a1b60648201526084016106ec565b60008051602061276983398151915280546001600160a01b0319166001600160a01b0392909216919091179055565b6118f183611da2565b6000825111806118fe5750805b1561078d57610fc08383611761565b600054610100900460ff166119345760405162461bcd60e51b81526004016106ec90612551565b6065611940838261263c565b50606661078d828261263c565b600054610100900460ff166119745760405162461bcd60e51b81526004016106ec90612551565b610c8633611629565b6001600160a01b0382166119d35760405162461bcd60e51b815260206004820181905260248201527f4552433732313a206d696e7420746f20746865207a65726f206164647265737360448201526064016106ec565b6000818152606760205260409020546001600160a01b031615611a385760405162461bcd60e51b815260206004820152601c60248201527f4552433732313a20746f6b656e20616c7265616479206d696e7465640000000060448201526064016106ec565b6000818152606760205260409020546001600160a01b031615611a9d5760405162461bcd60e51b815260206004820152601c60248201527f4552433732313a20746f6b656e20616c7265616479206d696e7465640000000060448201526064016106ec565b6001600160a01b038216600081815260686020908152604080832080546001019055848352606790915280822080546001600160a01b0319168417905551839291907fddf252ad1be2c89b69c2b068fc378daa952ba7f163c4a11628f55a4df523b3ef908290a45050565b60006001600160a01b0384163b15611bfe57604051630a85bd0160e11b81526001600160a01b0385169063150b7a0290611b4c9033908990889088906004016126fc565b6020604051808303816000875af1925050508015611b87575060408051601f3d908101601f19168201909252611b849181019061272f565b60015b611be4573d808015611bb5576040519150601f19603f3d011682016040523d82523d6000602084013e611bba565b606091505b508051600003611bdc5760405162461bcd60e51b81526004016106ec9061259c565b805181602001fd5b6001600160e01b031916630a85bd0160e11b149050611236565b506001611236565b600081815b84811015611c4957611c3582878784818110611c2957611c29612440565b90506020020135611de2565b915080611c418161249d565b915050611c0b565b50949350505050565b6060600080856001600160a01b031685604051611c6f919061274c565b600060405180830381855af49150503d8060008114611caa576040519150601f19603f3d011682016040523d82523d6000602084013e611caf565b606091505b5091509150611cc086838387611e11565b9695505050505050565b60008072184f03e93ff9f4daa797ed6e38ed64bf6a1f0160401b8310611d095772184f03e93ff9f4daa797ed6e38ed64bf6a1f0160401b830492506040015b6d04ee2d6d415b85acef81000000008310611d35576d04ee2d6d415b85acef8100000000830492506020015b662386f26fc100008310611d5357662386f26fc10000830492506010015b6305f5e1008310611d6b576305f5e100830492506008015b6127108310611d7f57612710830492506004015b60648310611d91576064830492506002015b600a83106105b95760010192915050565b611dab8161184c565b6040516001600160a01b038216907fbc7cd75a20ee27fd9adebab32041f755214dbc6bffa90cc0225b39da2e5c2d3b90600090a250565b6000818310611dfe576000828152602084905260409020611033565b6000838152602083905260409020611033565b60608315611e80578251600003611e79576001600160a01b0385163b611e795760405162461bcd60e51b815260206004820152601d60248201527f416464726573733a2063616c6c20746f206e6f6e2d636f6e747261637400000060448201526064016106ec565b5081611236565b6112368383815115611e955781518083602001fd5b8060405162461bcd60e51b81526004016106ec9190611f32565b6001600160e01b03198116811461089f57600080fd5b600060208284031215611ed757600080fd5b813561103381611eaf565b60005b83811015611efd578181015183820152602001611ee5565b50506000910152565b60008151808452611f1e816020860160208601611ee2565b601f01601f19169290920160200192915050565b6020815260006110336020830184611f06565b600060208284031215611f5757600080fd5b5035919050565b80356001600160a01b0381168114611f7557600080fd5b919050565b60008060408385031215611f8d57600080fd5b611f9683611f5e565b946020939093013593505050565b600080600060608486031215611fb957600080fd5b611fc284611f5e565b9250611fd060208501611f5e565b9150604084013590509250925092565b600060208284031215611ff257600080fd5b61103382611f5e565b634e487b7160e01b600052604160045260246000fd5b600082601f83011261202257600080fd5b813567ffffffffffffffff8082111561203d5761203d611ffb565b604051601f8301601f19908116603f0116810190828211818310171561206557612065611ffb565b8160405283815286602085880101111561207e57600080fd5b836020870160208301376000602085830101528094505050505092915050565b600080604083850312156120b157600080fd5b6120ba83611f5e565b9150602083013567ffffffffffffffff8111156120d657600080fd5b6120e285828601612011565b9150509250929050565b600080604083850312156120ff57600080fd5b50508035926020909101359150565b60008083601f84011261212057600080fd5b50813567ffffffffffffffff81111561213857600080fd5b6020830191508360208260051b850101111561215357600080fd5b9250929050565b60008060006040848603121561216f57600080fd5b83359250602084013567ffffffffffffffff81111561218d57600080fd5b6121998682870161210e565b9497909650939450505050565b600080604083850312156121b957600080fd5b6121c283611f5e565b9150602083013580151581146121d757600080fd5b809150509250929050565b600080602083850312156121f557600080fd5b823567ffffffffffffffff81111561220c57600080fd5b6122188582860161210e565b90969095509350505050565b6000602080830181845280855180835260408601915060408160051b870101925083870160005b8281101561227957603f19888603018452612267858351611f06565b9450928501929085019060010161224b565b5092979650505050505050565b6000806000806080858703121561229c57600080fd5b6122a585611f5e565b93506122b360208601611f5e565b925060408501359150606085013567ffffffffffffffff8111156122d657600080fd5b6122e287828801612011565b91505092959194509250565b6000806040838503121561230157600080fd5b61230a83611f5e565b915061231860208401611f5e565b90509250929050565b600181811c9082168061233557607f821691505b60208210810361235557634e487b7160e01b600052602260045260246000fd5b50919050565b6020808252602d908201527f4552433732313a2063616c6c6572206973206e6f7420746f6b656e206f776e6560408201526c1c881bdc88185c1c1c9bdd9959609a1b606082015260800190565b6020808252602c908201527f46756e6374696f6e206d7573742062652063616c6c6564207468726f7567682060408201526b19195b1959d85d1958d85b1b60a21b606082015260800190565b6020808252602c908201527f46756e6374696f6e206d7573742062652063616c6c6564207468726f7567682060408201526b6163746976652070726f787960a01b606082015260800190565b634e487b7160e01b600052603260045260246000fd5b6000808335601e1984360301811261246d57600080fd5b83018035915067ffffffffffffffff82111561248857600080fd5b60200191503681900382131561215357600080fd5b6000600182016124bd57634e487b7160e01b600052601160045260246000fd5b5060010190565b600083516124d6818460208801611ee2565b8351908301906124ea818360208801611ee2565b01949350505050565b60208082526025908201527f4552433732313a207472616e736665722066726f6d20696e636f72726563742060408201526437bbb732b960d91b606082015260800190565b60006020828403121561254a57600080fd5b5051919050565b6020808252602b908201527f496e697469616c697a61626c653a20636f6e7472616374206973206e6f74206960408201526a6e697469616c697a696e6760a81b606082015260800190565b60208082526032908201527f4552433732313a207472616e7366657220746f206e6f6e20455243373231526560408201527131b2b4bb32b91034b6b83632b6b2b73a32b960711b606082015260800190565b601f82111561078d57600081815260208120601f850160051c810160208610156126155750805b601f850160051c820191505b8181101561263457828155600101612621565b505050505050565b815167ffffffffffffffff81111561265657612656611ffb565b61266a816126648454612321565b846125ee565b602080601f83116001811461269f57600084156126875750858301515b600019600386901b1c1916600185901b178555612634565b600085815260208120601f198616915b828110156126ce578886015182559484019460019091019084016126af565b50858210156126ec5787850151600019600388901b60f8161c191681555b5050505050600190811b01905550565b6001600160a01b0385811682528416602082015260408101839052608060608201819052600090611cc090830184611f06565b60006020828403121561274157600080fd5b815161103381611eaf565b6000825161275e818460208701611ee2565b919091019291505056fe360894a13ba1a3210667c828492db98dca3e2076cc3735a920a3ca505d382bbc416464726573733a206c6f772d6c6576656c2064656c65676174652063616c6c206661696c6564a2646970667358221220ef04061bd340365a460d646f3bfd79948a12685bc1af205a08e245eadd34287764736f6c63430008150033","linkReferences":{}},"methodIdentifiers":{"approve(address,uint256)":"095ea7b3","balanceOf(address)":"70a08231","getApproved(uint256)":"081812fc","idCounter()":"eb08ab28","initialize(bytes32,uint256)":"5b36c66b","isApprovedForAll(address,address)":"e985e9c5","merkleRoot()":"2eb4a7ab","mintAirdrops(uint256,bytes32[])":"84296eb7","mintBuyWithETH()":"658a7227","multicall(bytes[])":"ac9650d8","name()":"06fdde03","owner()":"8da5cb5b","ownerOf(uint256)":"6352211e","price()":"a035b1fe","proxiableUUID()":"52d1902d","renounceOwnership()":"715018a6","safeTransferFrom(address,address,uint256)":"42842e0e","safeTransferFrom(address,address,uint256,bytes)":"b88d4fde","setApprovalForAll(address,bool)":"a22cb465","setMerkleRoot(bytes32)":"7cb64759","setPrice(uint256)":"91b7f5ed","supportsInterface(bytes4)":"01ffc9a7","symbol()":"95d89b41","tokenURI(uint256)":"c87b56dd","transferFrom(address,address,uint256)":"23b872dd","transferOwnership(address)":"f2fde38b","upgradeTo(address)":"3659cfe6","upgradeToAndCall(address,bytes)":"4f1ef286","withdrawETH(uint256)":"f14210a6"},"id":56}