{"abi":[{"type":"constructor","inputs":[{"name":"collateralPrice_","type":"uint256","internalType":"uint256"}],"stateMutability":"nonpayable"},{"type":"function","name":"collateralPrice","inputs":[],"outputs":[{"name":"","type":"uint256","internalType":"uint256"}],"stateMutability":"view"},{"type":"function","name":"depositNFTCollateral","inputs":[{"name":"id","type":"uint256","internalType":"uint256"}],"outputs":[],"stateMutability":"nonpayable"},{"type":"function","name":"getLoan","inputs":[{"name":"amount","type":"uint256","internalType":"uint256"}],"outputs":[],"stateMutability":"nonpayable"},{"type":"function","name":"idsCollateral","inputs":[{"name":"","type":"uint256","internalType":"uint256"}],"outputs":[{"name":"","type":"address","internalType":"address"}],"stateMutability":"view"},{"type":"function","name":"initialize","inputs":[{"name":"token_","type":"address","internalType":"address"},{"name":"nft_","type":"address","internalType":"address"}],"outputs":[],"stateMutability":"nonpayable"},{"type":"function","name":"multicall","inputs":[{"name":"data","type":"bytes[]","internalType":"bytes[]"}],"outputs":[{"name":"results","type":"bytes[]","internalType":"bytes[]"}],"stateMutability":"payable"},{"type":"function","name":"nft","inputs":[],"outputs":[{"name":"","type":"address","internalType":"contract SecureHalbornNFT"}],"stateMutability":"view"},{"type":"function","name":"onERC721Received","inputs":[{"name":"","type":"address","internalType":"address"},{"name":"","type":"address","internalType":"address"},{"name":"","type":"uint256","internalType":"uint256"},{"name":"","type":"bytes","internalType":"bytes"}],"outputs":[{"name":"","type":"bytes4","internalType":"bytes4"}],"stateMutability":"pure"},{"type":"function","name":"owner","inputs":[],"outputs":[{"name":"","type":"address","internalType":"address"}],"stateMutability":"view"},{"type":"function","name":"proxiableUUID","inputs":[],"outputs":[{"name":"","type":"bytes32","internalType":"bytes32"}],"stateMutability":"view"},{"type":"function","name":"renounceOwnership","inputs":[],"outputs":[],"stateMutability":"nonpayable"},{"type":"function","name":"returnLoan","inputs":[{"name":"amount","type":"uint256","internalType":"uint256"}],"outputs":[],"stateMutability":"nonpayable"},{"type":"function","name":"token","inputs":[],"outputs":[{"name":"","type":"address","internalType":"contract SecureHalbornToken"}],"stateMutability":"view"},{"type":"function","name":"totalCollateral","inputs":[{"name":"","type":"address","internalType":"address"}],"outputs":[{"name":"","type":"uint256","internalType":"uint256"}],"stateMutability":"view"},{"type":"function","name":"transferOwnership","inputs":[{"name":"newOwner","type":"address","internalType":"address"}],"outputs":[],"stateMutability":"nonpayable"},{"type":"function","name":"upgradeTo","inputs":[{"name":"newImplementation","type":"address","internalType":"address"}],"outputs":[],"stateMutability":"nonpayable"},{"type":"function","name":"upgradeToAndCall","inputs":[{"name":"newImplementation","type":"address","internalType":"address"},{"name":"data","type":"bytes","internalType":"bytes"}],"outputs":[],"stateMutability":"payable"},{"type":"function","name":"usedCollateral","inputs":[{"name":"","type":"address","internalType":"address"}],"outputs":[{"name":"","type":"uint256","internalType":"uint256"}],"stateMutability":"view"},{"type":"function","name":"withdrawCollateral","inputs":[{"name":"id","type":"uint256","internalType":"uint256"}],"outputs":[],"stateMutability":"nonpayable"},{"type":"event","name":"AdminChanged","inputs":[{"name":"previousAdmin","type":"address","indexed":false,"internalType":"address"},{"name":"newAdmin","type":"address","indexed":false,"internalType":"address"}],"anonymous":false},{"type":"event","name":"BeaconUpgraded","inputs":[{"name":"beacon","type":"address","indexed":true,"internalType":"address"}],"anonymous":false},{"type":"event","name":"Initialized","inputs":[{"name":"version","type":"uint8","indexed":false,"internalType":"uint8"}],"anonymous":false},{"type":"event","name":"OwnershipTransferred","inputs":[{"name":"previousOwner","type":"address","indexed":true,"internalType":"address"},{"name":"newOwner","type":"address","indexed":true,"internalType":"address"}],"anonymous":false},{"type":"event","name":"Upgraded","inputs":[{"name":"implementation","type":"address","indexed":true,"internalType":"address"}],"anonymous":false}],"bytecode":{"object":"0x60c06040523060805234801561001457600080fd5b506040516119ee3803806119ee8339810160408190526100339161003b565b60a052610054565b60006020828403121561004d57600080fd5b5051919050565b60805160a0516119446100aa60003960008181610245015281816108be01528181610a0f0152610baa0152600081816103f40152818161043d0152818161062f0152818161066f01526107fa01526119446000f3fe6080604052600436106101145760003560e01c8063647fd8ef116100a0578063ac9650d811610064578063ac9650d814610334578063d52c1db214610354578063e91261541461038a578063f2fde38b146103aa578063fc0c546a146103ca57600080fd5b8063647fd8ef14610287578063715018a6146102a75780637e059b22146102bc5780638da5cb5b146102e957806390f20d151461030757600080fd5b80634f1ef286116100e75780634f1ef286146101dd578063504006ca146101f057806352d1902d146102105780635891de72146102335780636112fe2e1461026757600080fd5b8063150b7a02146101195780633659cfe61461016357806347ccca0214610185578063485cc955146101bd575b600080fd5b34801561012557600080fd5b506101456101343660046113b7565b630a85bd0160e11b95945050505050565b6040516001600160e01b031990911681526020015b60405180910390f35b34801561016f57600080fd5b5061018361017e366004611456565b6103ea565b005b34801561019157600080fd5b5060ca546101a5906001600160a01b031681565b6040516001600160a01b03909116815260200161015a565b3480156101c957600080fd5b506101836101d8366004611473565b6104d2565b6101836101eb3660046114c2565b610625565b3480156101fc57600080fd5b5061018361020b366004611586565b6106f5565b34801561021c57600080fd5b506102256107ed565b60405190815260200161015a565b34801561023f57600080fd5b506102257f000000000000000000000000000000000000000000000000000000000000000081565b34801561027357600080fd5b50610183610282366004611586565b6108a0565b34801561029357600080fd5b506101836102a2366004611586565b610a61565b3480156102b357600080fd5b50610183610bfe565b3480156102c857600080fd5b506102256102d7366004611456565b60cb6020526000908152604090205481565b3480156102f557600080fd5b506097546001600160a01b03166101a5565b34801561031357600080fd5b50610225610322366004611456565b60cc6020526000908152604090205481565b61034761034236600461159f565b610c12565b60405161015a9190611664565b34801561036057600080fd5b506101a561036f366004611586565b60cd602052600090815260409020546001600160a01b031681565b34801561039657600080fd5b506101836103a5366004611586565b610d08565b3480156103b657600080fd5b506101836103c5366004611456565b610e31565b3480156103d657600080fd5b5060c9546101a5906001600160a01b031681565b6001600160a01b037f000000000000000000000000000000000000000000000000000000000000000016300361043b5760405162461bcd60e51b8152600401610432906116c6565b60405180910390fd5b7f00000000000000000000000000000000000000000000000000000000000000006001600160a01b03166104846000805160206118c8833981519152546001600160a01b031690565b6001600160a01b0316146104aa5760405162461bcd60e51b815260040161043290611712565b6104b381610ea7565b604080516000808252602082019092526104cf91839190610eaf565b50565b600054610100900460ff16158080156104f25750600054600160ff909116105b8061050c5750303b15801561050c575060005460ff166001145b61056f5760405162461bcd60e51b815260206004820152602e60248201527f496e697469616c697a61626c653a20636f6e747261637420697320616c72656160448201526d191e481a5b9a5d1a585b1a5e995960921b6064820152608401610432565b6000805460ff191660011790558015610592576000805461ff0019166101001790555b61059a61101a565b6105a261101a565b6105aa611041565b60c980546001600160a01b038086166001600160a01b03199283161790925560ca8054928516929091169190911790558015610620576000805461ff0019169055604051600181527f7f26b83ff96e1f2b6a682f133852f6798a09c465da95921460cefb38474024989060200160405180910390a15b505050565b6001600160a01b037f000000000000000000000000000000000000000000000000000000000000000016300361066d5760405162461bcd60e51b8152600401610432906116c6565b7f00000000000000000000000000000000000000000000000000000000000000006001600160a01b03166106b66000805160206118c8833981519152546001600160a01b031690565b6001600160a01b0316146106dc5760405162461bcd60e51b815260040161043290611712565b6106e582610ea7565b6106f182826001610eaf565b5050565b33600090815260cc602090815260408083205460cb90925290912054829161071c91611774565b106107615760405162461bcd60e51b8152602060048201526015602482015274139bdd08195b9bdd59da0818dbdb1b185d195c985b605a1b6044820152606401610432565b33600090815260cc602052604081208054839290610780908490611787565b909155505060c954604051630f38ca0d60e31b8152336004820152602481018390526001600160a01b03909116906379c65068906044015b600060405180830381600087803b1580156107d257600080fd5b505af11580156107e6573d6000803e3d6000fd5b5050505050565b6000306001600160a01b037f0000000000000000000000000000000000000000000000000000000000000000161461088d5760405162461bcd60e51b815260206004820152603860248201527f555550535570677261646561626c653a206d757374206e6f742062652063616c60448201527f6c6564207468726f7567682064656c656761746563616c6c00000000000000006064820152608401610432565b506000805160206118c883398151915290565b33600090815260cc602090815260408083205460cb909252909120547f0000000000000000000000000000000000000000000000000000000000000000916108e791611774565b101561092e5760405162461bcd60e51b8152602060048201526016602482015275436f6c6c61746572616c20756e617661696c61626c6560501b6044820152606401610432565b600081815260cd60205260409020546001600160a01b031633146109945760405162461bcd60e51b815260206004820152601a60248201527f4944206e6f74206465706f73697465642062792063616c6c65720000000000006044820152606401610432565b60ca54604051632142170760e11b8152306004820152336024820152604481018390526001600160a01b03909116906342842e0e90606401600060405180830381600087803b1580156109e657600080fd5b505af11580156109fa573d6000803e3d6000fd5b505033600090815260cb6020526040812080547f00000000000000000000000000000000000000000000000000000000000000009450909250610a3e908490611774565b9091555050600090815260cd6020526040902080546001600160a01b0319169055565b60ca546040516331a9108f60e11b81526004810183905233916001600160a01b031690636352211e90602401602060405180830381865afa158015610aaa573d6000803e3d6000fd5b505050506040513d601f19601f82011682018060405250810190610ace919061179a565b6001600160a01b031614610b2f5760405162461bcd60e51b815260206004820152602260248201527f43616c6c6572206973206e6f7420746865206f776e6572206f6620746865204e604482015261119560f21b6064820152608401610432565b60ca54604051632142170760e11b8152336004820152306024820152604481018390526001600160a01b03909116906342842e0e90606401600060405180830381600087803b158015610b8157600080fd5b505af1158015610b95573d6000803e3d6000fd5b505033600090815260cb6020526040812080547f00000000000000000000000000000000000000000000000000000000000000009450909250610bd9908490611787565b9091555050600090815260cd6020526040902080546001600160a01b03191633179055565b610c06611070565b610c1060006110ca565b565b60608167ffffffffffffffff811115610c2d57610c2d6114ac565b604051908082528060200260200182016040528015610c6057816020015b6060815260200190600190039081610c4b5790505b50905060005b82811015610d0057610cd030858584818110610c8457610c846117b7565b9050602002810190610c9691906117cd565b8080601f01602080910402602001604051908101604052809392919081815260200183838082843760009201919091525061111c92505050565b828281518110610ce257610ce26117b7565b60200260200101819052508080610cf89061181b565b915050610c66565b505b92915050565b33600090815260cc6020526040902054811115610d5f5760405162461bcd60e51b8152602060048201526015602482015274139bdd08195b9bdd59da0818dbdb1b185d195c985b605a1b6044820152606401610432565b60c9546040516370a0823160e01b815233600482015282916001600160a01b0316906370a0823190602401602060405180830381865afa158015610da7573d6000803e3d6000fd5b505050506040513d601f19601f82011682018060405250810190610dcb9190611834565b1015610dd657600080fd5b33600090815260cc602052604081208054839290610df5908490611787565b909155505060c954604051633477cc1b60e21b8152336004820152602481018390526001600160a01b039091169063d1df306c906044016107b8565b610e39611070565b6001600160a01b038116610e9e5760405162461bcd60e51b815260206004820152602660248201527f4f776e61626c653a206e6577206f776e657220697320746865207a65726f206160448201526564647265737360d01b6064820152608401610432565b6104cf816110ca565b6104cf611070565b7f4910fdfa16fed3260ed0e7147f7cc6da11a60208b5b9406d12a635614ffd91435460ff1615610ee25761062083611148565b826001600160a01b03166352d1902d6040518163ffffffff1660e01b8152600401602060405180830381865afa925050508015610f3c575060408051601f3d908101601f19168201909252610f3991810190611834565b60015b610f9f5760405162461bcd60e51b815260206004820152602e60248201527f45524331393637557067726164653a206e657720696d706c656d656e7461746960448201526d6f6e206973206e6f74205555505360901b6064820152608401610432565b6000805160206118c8833981519152811461100e5760405162461bcd60e51b815260206004820152602960248201527f45524331393637557067726164653a20756e737570706f727465642070726f786044820152681a58589b195555525160ba1b6064820152608401610432565b506106208383836111e4565b600054610100900460ff16610c105760405162461bcd60e51b81526004016104329061184d565b600054610100900460ff166110685760405162461bcd60e51b81526004016104329061184d565b610c1061120f565b6097546001600160a01b03163314610c105760405162461bcd60e51b815260206004820181905260248201527f4f776e61626c653a2063616c6c6572206973206e6f7420746865206f776e65726044820152606401610432565b609780546001600160a01b038381166001600160a01b0319831681179093556040519116919082907f8be0079c531659141344cd1fd0a4f28419497f9722a3daafe3b4186f6b6457e090600090a35050565b606061114183836040518060600160405280602781526020016118e86027913961123f565b9392505050565b6001600160a01b0381163b6111b55760405162461bcd60e51b815260206004820152602d60248201527f455243313936373a206e657720696d706c656d656e746174696f6e206973206e60448201526c1bdd08184818dbdb9d1c9858dd609a1b6064820152608401610432565b6000805160206118c883398151915280546001600160a01b0319166001600160a01b0392909216919091179055565b6111ed836112b7565b6000825111806111fa5750805b1561062057611209838361111c565b50505050565b600054610100900460ff166112365760405162461bcd60e51b81526004016104329061184d565b610c10336110ca565b6060600080856001600160a01b03168560405161125c9190611898565b600060405180830381855af49150503d8060008114611297576040519150601f19603f3d011682016040523d82523d6000602084013e61129c565b606091505b50915091506112ad868383876112f7565b9695505050505050565b6112c081611148565b6040516001600160a01b038216907fbc7cd75a20ee27fd9adebab32041f755214dbc6bffa90cc0225b39da2e5c2d3b90600090a250565b6060831561136657825160000361135f576001600160a01b0385163b61135f5760405162461bcd60e51b815260206004820152601d60248201527f416464726573733a2063616c6c20746f206e6f6e2d636f6e74726163740000006044820152606401610432565b5081611370565b6113708383611378565b949350505050565b8151156113885781518083602001fd5b8060405162461bcd60e51b815260040161043291906118b4565b6001600160a01b03811681146104cf57600080fd5b6000806000806000608086880312156113cf57600080fd5b85356113da816113a2565b945060208601356113ea816113a2565b935060408601359250606086013567ffffffffffffffff8082111561140e57600080fd5b818801915088601f83011261142257600080fd5b81358181111561143157600080fd5b89602082850101111561144357600080fd5b9699959850939650602001949392505050565b60006020828403121561146857600080fd5b8135611141816113a2565b6000806040838503121561148657600080fd5b8235611491816113a2565b915060208301356114a1816113a2565b809150509250929050565b634e487b7160e01b600052604160045260246000fd5b600080604083850312156114d557600080fd5b82356114e0816113a2565b9150602083013567ffffffffffffffff808211156114fd57600080fd5b818501915085601f83011261151157600080fd5b813581811115611523576115236114ac565b604051601f8201601f19908116603f0116810190838211818310171561154b5761154b6114ac565b8160405282815288602084870101111561156457600080fd5b8260208601602083013760006020848301015280955050505050509250929050565b60006020828403121561159857600080fd5b5035919050565b600080602083850312156115b257600080fd5b823567ffffffffffffffff808211156115ca57600080fd5b818501915085601f8301126115de57600080fd5b8135818111156115ed57600080fd5b8660208260051b850101111561160257600080fd5b60209290920196919550909350505050565b60005b8381101561162f578181015183820152602001611617565b50506000910152565b60008151808452611650816020860160208601611614565b601f01601f19169290920160200192915050565b6000602080830181845280855180835260408601915060408160051b870101925083870160005b828110156116b957603f198886030184526116a7858351611638565b9450928501929085019060010161168b565b5092979650505050505050565b6020808252602c908201527f46756e6374696f6e206d7573742062652063616c6c6564207468726f7567682060408201526b19195b1959d85d1958d85b1b60a21b606082015260800190565b6020808252602c908201527f46756e6374696f6e206d7573742062652063616c6c6564207468726f7567682060408201526b6163746976652070726f787960a01b606082015260800190565b634e487b7160e01b600052601160045260246000fd5b81810381811115610d0257610d0261175e565b80820180821115610d0257610d0261175e565b6000602082840312156117ac57600080fd5b8151611141816113a2565b634e487b7160e01b600052603260045260246000fd5b6000808335601e198436030181126117e457600080fd5b83018035915067ffffffffffffffff8211156117ff57600080fd5b60200191503681900382131561181457600080fd5b9250929050565b60006001820161182d5761182d61175e565b5060010190565b60006020828403121561184657600080fd5b5051919050565b6020808252602b908201527f496e697469616c697a61626c653a20636f6e7472616374206973206e6f74206960408201526a6e697469616c697a696e6760a81b606082015260800190565b600082516118aa818460208701611614565b9190910192915050565b602081526000611141602083018461163856fe360894a13ba1a3210667c828492db98dca3e2076cc3735a920a3ca505d382bbc416464726573733a206c6f772d6c6576656c2064656c65676174652063616c6c206661696c6564a2646970667358221220fb31db56672e70451a597f9eeb0517ad5948e92a3ab17a10f647c34cd2c3137064736f6c63430008150033","linkReferences":{}},"methodIdentifiers":{"collateralPrice()":"5891de72","depositNFTCollateral(uint256)":"647fd8ef","getLoan(uint256)":"504006ca","idsCollateral(uint256)":"d52c1db2","initialize(address,address)":"485cc955","multicall(bytes[])":"ac9650d8","nft()":"47ccca02","onERC721Received(address,address,uint256,bytes)":"150b7a02","owner()":"8da5cb5b","proxiableUUID()":"52d1902d","renounceOwnership()":"715018a6","returnLoan(uint256)":"e9126154","token()":"fc0c546a","totalCollateral(address)":"7e059b22","transferOwnership(address)":"f2fde38b","upgradeTo(address)":"3659cfe6","upgradeToAndCall(address,bytes)":"4f1ef286","usedCollateral(address)":"90f20d15","withdrawCollateral(uint256)":"6112fe2e"},"id":55}