{"abi":[{"type":"function","name":"allowance","inputs":[{"name":"owner","type":"address","internalType":"address"},{"name":"spender","type":"address","internalType":"address"}],"outputs":[{"name":"","type":"uint256","internalType":"uint256"}],"stateMutability":"view"},{"type":"function","name":"approve","inputs":[{"name":"spender","type":"address","internalType":"address"},{"name":"amount","type":"uint256","internalType":"uint256"}],"outputs":[{"name":"","type":"bool","internalType":"bool"}],"stateMutability":"nonpayable"},{"type":"function","name":"balanceOf","inputs":[{"name":"account","type":"address","internalType":"address"}],"outputs":[{"name":"","type":"uint256","internalType":"uint256"}],"stateMutability":"view"},{"type":"function","name":"burnToken","inputs":[{"name":"account","type":"address","internalType":"address"},{"name":"amount","type":"uint256","internalType":"uint256"}],"outputs":[],"stateMutability":"nonpayable"},{"type":"function","name":"decimals","inputs":[],"outputs":[{"name":"","type":"uint8","internalType":"uint8"}],"stateMutability":"view"},{"type":"function","name":"decreaseAllowance","inputs":[{"name":"spender","type":"address","internalType":"address"},{"name":"subtractedValue","type":"uint256","internalType":"uint256"}],"outputs":[{"name":"","type":"bool","internalType":"bool"}],"stateMutability":"nonpayable"},{"type":"function","name":"halbornLoans","inputs":[],"outputs":[{"name":"","type":"address","internalType":"address"}],"stateMutability":"view"},{"type":"function","name":"increaseAllowance","inputs":[{"name":"spender","type":"address","internalType":"address"},{"name":"addedValue","type":"uint256","internalType":"uint256"}],"outputs":[{"name":"","type":"bool","internalType":"bool"}],"stateMutability":"nonpayable"},{"type":"function","name":"initialize","inputs":[],"outputs":[],"stateMutability":"nonpayable"},{"type":"function","name":"mintToken","inputs":[{"name":"account","type":"address","internalType":"address"},{"name":"amount","type":"uint256","internalType":"uint256"}],"outputs":[],"stateMutability":"nonpayable"},{"type":"function","name":"multicall","inputs":[{"name":"data","type":"bytes[]","internalType":"bytes[]"}],"outputs":[{"name":"results","type":"bytes[]","internalType":"bytes[]"}],"stateMutability":"payable"},{"type":"function","name":"name","inputs":[],"outputs":[{"name":"","type":"string","internalType":"string"}],"stateMutability":"view"},{"type":"function","name":"owner","inputs":[],"outputs":[{"name":"","type":"address","internalType":"address"}],"stateMutability":"view"},{"type":"function","name":"proxiableUUID","inputs":[],"outputs":[{"name":"","type":"bytes32","internalType":"bytes32"}],"stateMutability":"view"},{"type":"function","name":"renounceOwnership","inputs":[],"outputs":[],"stateMutability":"nonpayable"},{"type":"function","name":"setLoans","inputs":[{"name":"halbornLoans_","type":"address","internalType":"address"}],"outputs":[],"stateMutability":"nonpayable"},{"type":"function","name":"symbol","inputs":[],"outputs":[{"name":"","type":"string","internalType":"string"}],"stateMutability":"view"},{"type":"function","name":"totalSupply","inputs":[],"outputs":[{"name":"","type":"uint256","internalType":"uint256"}],"stateMutability":"view"},{"type":"function","name":"transfer","inputs":[{"name":"to","type":"address","internalType":"address"},{"name":"amount","type":"uint256","internalType":"uint256"}],"outputs":[{"name":"","type":"bool","internalType":"bool"}],"stateMutability":"nonpayable"},{"type":"function","name":"transferFrom","inputs":[{"name":"from","type":"address","internalType":"address"},{"name":"to","type":"address","internalType":"address"},{"name":"amount","type":"uint256","internalType":"uint256"}],"outputs":[{"name":"","type":"bool","internalType":"bool"}],"stateMutability":"nonpayable"},{"type":"function","name":"transferOwnership","inputs":[{"name":"newOwner","type":"address","internalType":"address"}],"outputs":[],"stateMutability":"nonpayable"},{"type":"function","name":"upgradeTo","inputs":[{"name":"newImplementation","type":"address","internalType":"address"}],"outputs":[],"stateMutability":"nonpayable"},{"type":"function","name":"upgradeToAndCall","inputs":[{"name":"newImplementation","type":"address","internalType":"address"},{"name":"data","type":"bytes","internalType":"bytes"}],"outputs":[],"stateMutability":"payable"},{"type":"event","name":"AdminChanged","inputs":[{"name":"previousAdmin","type":"address","indexed":false,"internalType":"address"},{"name":"newAdmin","type":"address","indexed":false,"internalType":"address"}],"anonymous":false},{"type":"event","name":"Approval","inputs":[{"name":"owner","type":"address","indexed":true,"internalType":"address"},{"name":"spender","type":"address","indexed":true,"internalType":"address"},{"name":"value","type":"uint256","indexed":false,"internalType":"uint256"}],"anonymous":false},{"type":"event","name":"BeaconUpgraded","inputs":[{"name":"beacon","type":"address","indexed":true,"internalType":"address"}],"anonymous":false},{"type":"event","name":"Initialized","inputs":[{"name":"version","type":"uint8","indexed":false,"internalType":"uint8"}],"anonymous":false},{"type":"event","name":"OwnershipTransferred","inputs":[{"name":"previousOwner","type":"address","indexed":true,"internalType":"address"},{"name":"newOwner","type":"address","indexed":true,"internalType":"address"}],"anonymous":false},{"type":"event","name":"Transfer","inputs":[{"name":"from","type":"address","indexed":true,"internalType":"address"},{"name":"to","type":"address","indexed":true,"internalType":"address"},{"name":"value","type":"uint256","indexed":false,"internalType":"uint256"}],"anonymous":false},{"type":"event","name":"Upgraded","inputs":[{"name":"implementation","type":"address","indexed":true,"internalType":"address"}],"anonymous":false}],"bytecode":{"object":"0x60a06040523060805234801561001457600080fd5b506080516118b661004c600039600081816105060152818161054f015281816106070152818161064701526106d101526118b66000f3fe6080604052600436106101405760003560e01c806379c65068116100b6578063a9059cbb1161006f578063a9059cbb1461036c578063ac9650d81461038c578063b18a7dd8146103ac578063d1df306c146103cc578063dd62ed3e146103ec578063f2fde38b1461040c57600080fd5b806379c65068146102b05780638129fc1c146102d05780638da5cb5b146102e557806395d89b41146103175780639d06bcea1461032c578063a457c2d71461034c57600080fd5b80633659cfe6116101085780633659cfe6146101fb578063395093511461021d5780634f1ef2861461023d57806352d1902d1461025057806370a0823114610265578063715018a61461029b57600080fd5b806306fdde0314610145578063095ea7b31461017057806318160ddd146101a057806323b872dd146101bf578063313ce567146101df575b600080fd5b34801561015157600080fd5b5061015a61042c565b60405161016791906113fa565b60405180910390f35b34801561017c57600080fd5b5061019061018b366004611429565b6104be565b6040519015158152602001610167565b3480156101ac57600080fd5b506035545b604051908152602001610167565b3480156101cb57600080fd5b506101906101da366004611453565b6104d8565b3480156101eb57600080fd5b5060405160128152602001610167565b34801561020757600080fd5b5061021b61021636600461148f565b6104fc565b005b34801561022957600080fd5b50610190610238366004611429565b6105db565b61021b61024b3660046114c0565b6105fd565b34801561025c57600080fd5b506101b16106c4565b34801561027157600080fd5b506101b161028036600461148f565b6001600160a01b031660009081526033602052604090205490565b3480156102a757600080fd5b5061021b610777565b3480156102bc57600080fd5b5061021b6102cb366004611429565b61078b565b3480156102dc57600080fd5b5061021b610795565b3480156102f157600080fd5b5060c9546001600160a01b03165b6040516001600160a01b039091168152602001610167565b34801561032357600080fd5b5061015a61079e565b34801561033857600080fd5b5061021b61034736600461148f565b6107ad565b34801561035857600080fd5b50610190610367366004611429565b6107d7565b34801561037857600080fd5b50610190610387366004611429565b610852565b61039f61039a366004611582565b610860565b60405161016791906115f7565b3480156103b857600080fd5b5060fb546102ff906001600160a01b031681565b3480156103d857600080fd5b5061021b6103e7366004611429565b610955565b3480156103f857600080fd5b506101b1610407366004611659565b61095f565b34801561041857600080fd5b5061021b61042736600461148f565b61098a565b60606036805461043b9061168c565b80601f01602080910402602001604051908101604052809291908181526020018280546104679061168c565b80156104b45780601f10610489576101008083540402835291602001916104b4565b820191906000526020600020905b81548152906001019060200180831161049757829003601f168201915b5050505050905090565b6000336104cc818585610a00565b60019150505b92915050565b6000336104e6858285610b24565b6104f1858585610b9e565b506001949350505050565b6001600160a01b037f000000000000000000000000000000000000000000000000000000000000000016300361054d5760405162461bcd60e51b8152600401610544906116c6565b60405180910390fd5b7f00000000000000000000000000000000000000000000000000000000000000006001600160a01b031661059660008051602061183a833981519152546001600160a01b031690565b6001600160a01b0316146105bc5760405162461bcd60e51b815260040161054490611712565b604080516000808252602082019092526105d891839190610d49565b50565b6000336104cc8185856105ee838361095f565b6105f89190611774565b610a00565b6001600160a01b037f00000000000000000000000000000000000000000000000000000000000000001630036106455760405162461bcd60e51b8152600401610544906116c6565b7f00000000000000000000000000000000000000000000000000000000000000006001600160a01b031661068e60008051602061183a833981519152546001600160a01b031690565b6001600160a01b0316146106b45760405162461bcd60e51b815260040161054490611712565b6106c082826001610d49565b5050565b6000306001600160a01b037f000000000000000000000000000000000000000000000000000000000000000016146107645760405162461bcd60e51b815260206004820152603860248201527f555550535570677261646561626c653a206d757374206e6f742062652063616c60448201527f6c6564207468726f7567682064656c656761746563616c6c00000000000000006064820152608401610544565b5060008051602061183a83398151915290565b61077f610eb9565b6107896000610f13565b565b6106c08282610f65565b61078933610f13565b60606037805461043b9061168c565b6107b5610eb9565b60fb80546001600160a01b0319166001600160a01b0392909216919091179055565b600033816107e5828661095f565b9050838110156108455760405162461bcd60e51b815260206004820152602560248201527f45524332303a2064656372656173656420616c6c6f77616e63652062656c6f77604482015264207a65726f60d81b6064820152608401610544565b6104f18286868403610a00565b6000336104cc818585610b9e565b60608167ffffffffffffffff81111561087b5761087b6114aa565b6040519080825280602002602001820160405280156108ae57816020015b60608152602001906001900390816108995790505b50905060005b8281101561094e5761091e308585848181106108d2576108d2611787565b90506020028101906108e4919061179d565b8080601f01602080910402602001604051908101604052809392919081815260200183838082843760009201919091525061102692505050565b82828151811061093057610930611787565b60200260200101819052508080610946906117eb565b9150506108b4565b5092915050565b6106c08282611052565b6001600160a01b03918216600090815260346020908152604080832093909416825291909152205490565b610992610eb9565b6001600160a01b0381166109f75760405162461bcd60e51b815260206004820152602660248201527f4f776e61626c653a206e6577206f776e657220697320746865207a65726f206160448201526564647265737360d01b6064820152608401610544565b6105d881610f13565b6001600160a01b038316610a625760405162461bcd60e51b8152602060048201526024808201527f45524332303a20617070726f76652066726f6d20746865207a65726f206164646044820152637265737360e01b6064820152608401610544565b6001600160a01b038216610ac35760405162461bcd60e51b815260206004820152602260248201527f45524332303a20617070726f766520746f20746865207a65726f206164647265604482015261737360f01b6064820152608401610544565b6001600160a01b0383811660008181526034602090815260408083209487168084529482529182902085905590518481527f8c5be1e5ebec7d5bd14f71427d1e84f3dd0314c0f7b2291e5b200ac8c7c3b925910160405180910390a3505050565b6000610b30848461095f565b90506000198114610b985781811015610b8b5760405162461bcd60e51b815260206004820152601d60248201527f45524332303a20696e73756666696369656e7420616c6c6f77616e63650000006044820152606401610544565b610b988484848403610a00565b50505050565b6001600160a01b038316610c025760405162461bcd60e51b815260206004820152602560248201527f45524332303a207472616e736665722066726f6d20746865207a65726f206164604482015264647265737360d81b6064820152608401610544565b6001600160a01b038216610c645760405162461bcd60e51b815260206004820152602360248201527f45524332303a207472616e7366657220746f20746865207a65726f206164647260448201526265737360e81b6064820152608401610544565b6001600160a01b03831660009081526033602052604090205481811015610cdc5760405162461bcd60e51b815260206004820152602660248201527f45524332303a207472616e7366657220616d6f756e7420657863656564732062604482015265616c616e636560d01b6064820152608401610544565b6001600160a01b0380851660008181526033602052604080822086860390559286168082529083902080548601905591517fddf252ad1be2c89b69c2b068fc378daa952ba7f163c4a11628f55a4df523b3ef90610d3c9086815260200190565b60405180910390a3610b98565b7f4910fdfa16fed3260ed0e7147f7cc6da11a60208b5b9406d12a635614ffd91435460ff1615610d8157610d7c83611186565b505050565b826001600160a01b03166352d1902d6040518163ffffffff1660e01b8152600401602060405180830381865afa925050508015610ddb575060408051601f3d908101601f19168201909252610dd891810190611804565b60015b610e3e5760405162461bcd60e51b815260206004820152602e60248201527f45524331393637557067726164653a206e657720696d706c656d656e7461746960448201526d6f6e206973206e6f74205555505360901b6064820152608401610544565b60008051602061183a8339815191528114610ead5760405162461bcd60e51b815260206004820152602960248201527f45524331393637557067726164653a20756e737570706f727465642070726f786044820152681a58589b195555525160ba1b6064820152608401610544565b50610d7c838383611222565b60c9546001600160a01b031633146107895760405162461bcd60e51b815260206004820181905260248201527f4f776e61626c653a2063616c6c6572206973206e6f7420746865206f776e65726044820152606401610544565b60c980546001600160a01b038381166001600160a01b0319831681179093556040519116919082907f8be0079c531659141344cd1fd0a4f28419497f9722a3daafe3b4186f6b6457e090600090a35050565b6001600160a01b038216610fbb5760405162461bcd60e51b815260206004820152601f60248201527f45524332303a206d696e7420746f20746865207a65726f2061646472657373006044820152606401610544565b8060356000828254610fcd9190611774565b90915550506001600160a01b0382166000818152603360209081526040808320805486019055518481527fddf252ad1be2c89b69c2b068fc378daa952ba7f163c4a11628f55a4df523b3ef910160405180910390a35050565b606061104b838360405180606001604052806027815260200161185a60279139611247565b9392505050565b6001600160a01b0382166110b25760405162461bcd60e51b815260206004820152602160248201527f45524332303a206275726e2066726f6d20746865207a65726f206164647265736044820152607360f81b6064820152608401610544565b6001600160a01b038216600090815260336020526040902054818110156111265760405162461bcd60e51b815260206004820152602260248201527f45524332303a206275726e20616d6f756e7420657863656564732062616c616e604482015261636560f01b6064820152608401610544565b6001600160a01b03831660008181526033602090815260408083208686039055603580548790039055518581529192917fddf252ad1be2c89b69c2b068fc378daa952ba7f163c4a11628f55a4df523b3ef910160405180910390a3505050565b6001600160a01b0381163b6111f35760405162461bcd60e51b815260206004820152602d60248201527f455243313936373a206e657720696d706c656d656e746174696f6e206973206e60448201526c1bdd08184818dbdb9d1c9858dd609a1b6064820152608401610544565b60008051602061183a83398151915280546001600160a01b0319166001600160a01b0392909216919091179055565b61122b836112bf565b6000825111806112385750805b15610d7c57610b988383611026565b6060600080856001600160a01b031685604051611264919061181d565b600060405180830381855af49150503d806000811461129f576040519150601f19603f3d011682016040523d82523d6000602084013e6112a4565b606091505b50915091506112b5868383876112ff565b9695505050505050565b6112c881611186565b6040516001600160a01b038216907fbc7cd75a20ee27fd9adebab32041f755214dbc6bffa90cc0225b39da2e5c2d3b90600090a250565b6060831561136e578251600003611367576001600160a01b0385163b6113675760405162461bcd60e51b815260206004820152601d60248201527f416464726573733a2063616c6c20746f206e6f6e2d636f6e74726163740000006044820152606401610544565b5081611378565b6113788383611380565b949350505050565b8151156113905781518083602001fd5b8060405162461bcd60e51b815260040161054491906113fa565b60005b838110156113c55781810151838201526020016113ad565b50506000910152565b600081518084526113e68160208601602086016113aa565b601f01601f19169290920160200192915050565b60208152600061104b60208301846113ce565b80356001600160a01b038116811461142457600080fd5b919050565b6000806040838503121561143c57600080fd5b6114458361140d565b946020939093013593505050565b60008060006060848603121561146857600080fd5b6114718461140d565b925061147f6020850161140d565b9150604084013590509250925092565b6000602082840312156114a157600080fd5b61104b8261140d565b634e487b7160e01b600052604160045260246000fd5b600080604083850312156114d357600080fd5b6114dc8361140d565b9150602083013567ffffffffffffffff808211156114f957600080fd5b818501915085601f83011261150d57600080fd5b81358181111561151f5761151f6114aa565b604051601f8201601f19908116603f01168101908382118183101715611547576115476114aa565b8160405282815288602084870101111561156057600080fd5b8260208601602083013760006020848301015280955050505050509250929050565b6000806020838503121561159557600080fd5b823567ffffffffffffffff808211156115ad57600080fd5b818501915085601f8301126115c157600080fd5b8135818111156115d057600080fd5b8660208260051b85010111156115e557600080fd5b60209290920196919550909350505050565b6000602080830181845280855180835260408601915060408160051b870101925083870160005b8281101561164c57603f1988860301845261163a8583516113ce565b9450928501929085019060010161161e565b5092979650505050505050565b6000806040838503121561166c57600080fd5b6116758361140d565b91506116836020840161140d565b90509250929050565b600181811c908216806116a057607f821691505b6020821081036116c057634e487b7160e01b600052602260045260246000fd5b50919050565b6020808252602c908201527f46756e6374696f6e206d7573742062652063616c6c6564207468726f7567682060408201526b19195b1959d85d1958d85b1b60a21b606082015260800190565b6020808252602c908201527f46756e6374696f6e206d7573742062652063616c6c6564207468726f7567682060408201526b6163746976652070726f787960a01b606082015260800190565b634e487b7160e01b600052601160045260246000fd5b808201808211156104d2576104d261175e565b634e487b7160e01b600052603260045260246000fd5b6000808335601e198436030181126117b457600080fd5b83018035915067ffffffffffffffff8211156117cf57600080fd5b6020019150368190038213156117e457600080fd5b9250929050565b6000600182016117fd576117fd61175e565b5060010190565b60006020828403121561181657600080fd5b5051919050565b6000825161182f8184602087016113aa565b919091019291505056fe360894a13ba1a3210667c828492db98dca3e2076cc3735a920a3ca505d382bbc416464726573733a206c6f772d6c6576656c2064656c65676174652063616c6c206661696c6564a2646970667358221220f3de53270e30c3138e1968c8afb901823d01b37a087b543c01b547e6347899dd64736f6c63430008150033","linkReferences":{}},"methodIdentifiers":{"allowance(address,address)":"dd62ed3e","approve(address,uint256)":"095ea7b3","balanceOf(address)":"70a08231","burnToken(address,uint256)":"d1df306c","decimals()":"313ce567","decreaseAllowance(address,uint256)":"a457c2d7","halbornLoans()":"b18a7dd8","increaseAllowance(address,uint256)":"39509351","initialize()":"8129fc1c","mintToken(address,uint256)":"79c65068","multicall(bytes[])":"ac9650d8","name()":"06fdde03","owner()":"8da5cb5b","proxiableUUID()":"52d1902d","renounceOwnership()":"715018a6","setLoans(address)":"9d06bcea","symbol()":"95d89b41","totalSupply()":"18160ddd","transfer(address,uint256)":"a9059cbb","transferFrom(address,address,uint256)":"23b872dd","transferOwnership(address)":"f2fde38b","upgradeTo(address)":"3659cfe6","upgradeToAndCall(address,bytes)":"4f1ef286"},"id":50}