{"abi":[{"type":"function","name":"approve","inputs":[{"name":"to","type":"address","internalType":"address"},{"name":"tokenId","type":"uint256","internalType":"uint256"}],"outputs":[],"stateMutability":"nonpayable"},{"type":"function","name":"balanceOf","inputs":[{"name":"owner","type":"address","internalType":"address"}],"outputs":[{"name":"","type":"uint256","internalType":"uint256"}],"stateMutability":"view"},{"type":"function","name":"getApproved","inputs":[{"name":"tokenId","type":"uint256","internalType":"uint256"}],"outputs":[{"name":"","type":"address","internalType":"address"}],"stateMutability":"view"},{"type":"function","name":"idCounter","inputs":[],"outputs":[{"name":"","type":"uint256","internalType":"uint256"}],"stateMutability":"view"},{"type":"function","name":"initialize","inputs":[{"name":"merkleRoot_","type":"bytes32","internalType":"bytes32"},{"name":"price_","type":"uint256","internalType":"uint256"}],"outputs":[],"stateMutability":"nonpayable"},{"type":"function","name":"isApprovedForAll","inputs":[{"name":"owner","type":"address","internalType":"address"},{"name":"operator","type":"address","internalType":"address"}],"outputs":[{"name":"","type":"bool","internalType":"bool"}],"stateMutability":"view"},{"type":"function","name":"merkleRoot","inputs":[],"outputs":[{"name":"","type":"bytes32","internalType":"bytes32"}],"stateMutability":"view"},{"type":"function","name":"mintAirdrops","inputs":[{"name":"id","type":"uint256","internalType":"uint256"},{"name":"merkleProof","type":"bytes32[]","internalType":"bytes32[]"}],"outputs":[],"stateMutability":"nonpayable"},{"type":"function","name":"mintBuyWithETH","inputs":[],"outputs":[],"stateMutability":"payable"},{"type":"function","name":"multicall","inputs":[{"name":"data","type":"bytes[]","internalType":"bytes[]"}],"outputs":[{"name":"results","type":"bytes[]","internalType":"bytes[]"}],"stateMutability":"payable"},{"type":"function","name":"name","inputs":[],"outputs":[{"name":"","type":"string","internalType":"string"}],"stateMutability":"view"},{"type":"function","name":"owner","inputs":[],"outputs":[{"name":"","type":"address","internalType":"address"}],"stateMutability":"view"},{"type":"function","name":"ownerOf","inputs":[{"name":"tokenId","type":"uint256","internalType":"uint256"}],"outputs":[{"name":"","type":"address","internalType":"address"}],"stateMutability":"view"},{"type":"function","name":"price","inputs":[],"outputs":[{"name":"","type":"uint256","internalType":"uint256"}],"stateMutability":"view"},{"type":"function","name":"proxiableUUID","inputs":[],"outputs":[{"name":"","type":"bytes32","internalType":"bytes32"}],"stateMutability":"view"},{"type":"function","name":"renounceOwnership","inputs":[],"outputs":[],"stateMutability":"nonpayable"},{"type":"function","name":"safeTransferFrom","inputs":[{"name":"from","type":"address","internalType":"address"},{"name":"to","type":"address","internalType":"address"},{"name":"tokenId","type":"uint256","internalType":"uint256"}],"outputs":[],"stateMutability":"nonpayable"},{"type":"function","name":"safeTransferFrom","inputs":[{"name":"from","type":"address","internalType":"address"},{"name":"to","type":"address","internalType":"address"},{"name":"tokenId","type":"uint256","internalType":"uint256"},{"name":"data","type":"bytes","internalType":"bytes"}],"outputs":[],"stateMutability":"nonpayable"},{"type":"function","name":"setApprovalForAll","inputs":[{"name":"operator","type":"address","internalType":"address"},{"name":"approved","type":"bool","internalType":"bool"}],"outputs":[],"stateMutability":"nonpayable"},{"type":"function","name":"setMerkleRoot","inputs":[{"name":"merkleRoot_","type":"bytes32","internalType":"bytes32"}],"outputs":[],"stateMutability":"nonpayable"},{"type":"function","name":"setPrice","inputs":[{"name":"price_","type":"uint256","internalType":"uint256"}],"outputs":[],"stateMutability":"nonpayable"},{"type":"function","name":"supportsInterface","inputs":[{"name":"interfaceId","type":"bytes4","internalType":"bytes4"}],"outputs":[{"name":"","type":"bool","internalType":"bool"}],"stateMutability":"view"},{"type":"function","name":"symbol","inputs":[],"outputs":[{"name":"","type":"string","internalType":"string"}],"stateMutability":"view"},{"type":"function","name":"tokenURI","inputs":[{"name":"tokenId","type":"uint256","internalType":"uint256"}],"outputs":[{"name":"","type":"string","internalType":"string"}],"stateMutability":"view"},{"type":"function","name":"transferFrom","inputs":[{"name":"from","type":"address","internalType":"address"},{"name":"to","type":"address","internalType":"address"},{"name":"tokenId","type":"uint256","internalType":"uint256"}],"outputs":[],"stateMutability":"nonpayable"},{"type":"function","name":"transferOwnership","inputs":[{"name":"newOwner","type":"address","internalType":"address"}],"outputs":[],"stateMutability":"nonpayable"},{"type":"function","name":"upgradeTo","inputs":[{"name":"newImplementation","type":"address","internalType":"address"}],"outputs":[],"stateMutability":"nonpayable"},{"type":"function","name":"upgradeToAndCall","inputs":[{"name":"newImplementation","type":"address","internalType":"address"},{"name":"data","type":"bytes","internalType":"bytes"}],"outputs":[],"stateMutability":"payable"},{"type":"function","name":"withdrawETH","inputs":[{"name":"amount","type":"uint256","internalType":"uint256"}],"outputs":[],"stateMutability":"nonpayable"},{"type":"event","name":"AdminChanged","inputs":[{"name":"previousAdmin","type":"address","indexed":false,"internalType":"address"},{"name":"newAdmin","type":"address","indexed":false,"internalType":"address"}],"anonymous":false},{"type":"event","name":"Approval","inputs":[{"name":"owner","type":"address","indexed":true,"internalType":"address"},{"name":"approved","type":"address","indexed":true,"internalType":"address"},{"name":"tokenId","type":"uint256","indexed":true,"internalType":"uint256"}],"anonymous":false},{"type":"event","name":"ApprovalForAll","inputs":[{"name":"owner","type":"address","indexed":true,"internalType":"address"},{"name":"operator","type":"address","indexed":true,"internalType":"address"},{"name":"approved","type":"bool","indexed":false,"internalType":"bool"}],"anonymous":false},{"type":"event","name":"BeaconUpgraded","inputs":[{"name":"beacon","type":"address","indexed":true,"internalType":"address"}],"anonymous":false},{"type":"event","name":"Initialized","inputs":[{"name":"version","type":"uint8","indexed":false,"internalType":"uint8"}],"anonymous":false},{"type":"event","name":"OwnershipTransferred","inputs":[{"name":"previousOwner","type":"address","indexed":true,"internalType":"address"},{"name":"newOwner","type":"address","indexed":true,"internalType":"address"}],"anonymous":false},{"type":"event","name":"Transfer","inputs":[{"name":"from","type":"address","indexed":true,"internalType":"address"},{"name":"to","type":"address","indexed":true,"internalType":"address"},{"name":"tokenId","type":"uint256","indexed":true,"internalType":"uint256"}],"anonymous":false},{"type":"event","name":"Upgraded","inputs":[{"name":"implementation","type":"address","indexed":true,"internalType":"address"}],"anonymous":false}],"bytecode":{"object":"0x60a06040523060805234801561001457600080fd5b506080516123c561004c600039600081816107cd0152818161080d015281816108be015281816108fe015261098801526123c56000f3fe6080604052600436106101c25760003560e01c8063715018a6116100f7578063a22cb46511610095578063e985e9c511610064578063e985e9c5146104cd578063eb08ab2814610516578063f14210a61461052d578063f2fde38b1461054d57600080fd5b8063a22cb4651461044d578063ac9650d81461046d578063b88d4fde1461048d578063c87b56dd146104ad57600080fd5b80638da5cb5b116100d15780638da5cb5b146103e357806391b7f5ed1461040157806395d89b4114610421578063a035b1fe1461043657600080fd5b8063715018a61461038d5780637cb64759146103a257806384296eb7146103c357600080fd5b806342842e0e116101645780635b36c66b1161013e5780635b36c66b146103255780636352211e14610345578063658a72271461036557806370a082311461036d57600080fd5b806342842e0e146102dd5780634f1ef286146102fd57806352d1902d1461031057600080fd5b8063095ea7b3116101a0578063095ea7b31461025657806323b872dd146102785780632eb4a7ab146102985780633659cfe6146102bd57600080fd5b806301ffc9a7146101c757806306fdde03146101fc578063081812fc1461021e575b600080fd5b3480156101d357600080fd5b506101e76101e2366004611bfe565b61056d565b60405190151581526020015b60405180910390f35b34801561020857600080fd5b506102116105bf565b6040516101f39190611c6b565b34801561022a57600080fd5b5061023e610239366004611c7e565b610651565b6040516001600160a01b0390911681526020016101f3565b34801561026257600080fd5b50610276610271366004611cb3565b610678565b005b34801561028457600080fd5b50610276610293366004611cdd565b610792565b3480156102a457600080fd5b506102af61012d5481565b6040519081526020016101f3565b3480156102c957600080fd5b506102766102d8366004611d19565b6107c3565b3480156102e957600080fd5b506102766102f8366004611cdd565b610899565b61027661030b366004611dd7565b6108b4565b34801561031c57600080fd5b506102af61097b565b34801561033157600080fd5b50610276610340366004611e25565b610a2e565b34801561035157600080fd5b5061023e610360366004611c7e565b610a4a565b610276610aaa565b34801561037957600080fd5b506102af610388366004611d19565b610b14565b34801561039957600080fd5b50610276610b9a565b3480156103ae57600080fd5b506102766103bd366004611c7e565b61012d55565b3480156103cf57600080fd5b506102766103de366004611e93565b610bac565b3480156103ef57600080fd5b5060fb546001600160a01b031661023e565b34801561040d57600080fd5b5061027661041c366004611c7e565b610cb9565b34801561042d57600080fd5b50610211610cc7565b34801561044257600080fd5b506102af61012e5481565b34801561045957600080fd5b50610276610468366004611edf565b610cd6565b61048061047b366004611f1b565b610ce1565b6040516101f39190611f5d565b34801561049957600080fd5b506102766104a8366004611fbf565b610dd6565b3480156104b957600080fd5b506102116104c8366004611c7e565b610e0e565b3480156104d957600080fd5b506101e76104e8366004612027565b6001600160a01b039182166000908152606a6020908152604080832093909416825291909152205460ff1690565b34801561052257600080fd5b506102af61012f5481565b34801561053957600080fd5b50610276610548366004611c7e565b610e82565b34801561055957600080fd5b50610276610568366004611d19565b610ebc565b60006001600160e01b031982166380ac58cd60e01b148061059e57506001600160e01b03198216635b5e139f60e01b145b806105b957506301ffc9a760e01b6001600160e01b03198316145b92915050565b6060606580546105ce9061205a565b80601f01602080910402602001604051908101604052809291908181526020018280546105fa9061205a565b80156106475780601f1061061c57610100808354040283529160200191610647565b820191906000526020600020905b81548152906001019060200180831161062a57829003601f168201915b5050505050905090565b600061065c82610f2a565b506000908152606960205260409020546001600160a01b031690565b600061068382610a4a565b9050806001600160a01b0316836001600160a01b0316036106f55760405162461bcd60e51b815260206004820152602160248201527f4552433732313a20617070726f76616c20746f2063757272656e74206f776e656044820152603960f91b60648201526084015b60405180910390fd5b336001600160a01b0382161480610711575061071181336104e8565b6107835760405162461bcd60e51b815260206004820152603d60248201527f4552433732313a20617070726f76652063616c6c6572206973206e6f7420746f60448201527f6b656e206f776e6572206f7220617070726f76656420666f7220616c6c00000060648201526084016106ec565b61078d8383610f89565b505050565b61079c3382610ff7565b6107b85760405162461bcd60e51b81526004016106ec90612094565b61078d838383611076565b6001600160a01b037f000000000000000000000000000000000000000000000000000000000000000016300361080b5760405162461bcd60e51b81526004016106ec906120e1565b7f00000000000000000000000000000000000000000000000000000000000000006001600160a01b0316610854600080516020612349833981519152546001600160a01b031690565b6001600160a01b03161461087a5760405162461bcd60e51b81526004016106ec9061212d565b60408051600080825260208201909252610896918391906111da565b50565b61078d83838360405180602001604052806000815250610dd6565b6001600160a01b037f00000000000000000000000000000000000000000000000000000000000000001630036108fc5760405162461bcd60e51b81526004016106ec906120e1565b7f00000000000000000000000000000000000000000000000000000000000000006001600160a01b0316610945600080516020612349833981519152546001600160a01b031690565b6001600160a01b03161461096b5760405162461bcd60e51b81526004016106ec9061212d565b610977828260016111da565b5050565b6000306001600160a01b037f00000000000000000000000000000000000000000000000000000000000000001614610a1b5760405162461bcd60e51b815260206004820152603860248201527f555550535570677261646561626c653a206d757374206e6f742062652063616c60448201527f6c6564207468726f7567682064656c656761746563616c6c000000000000000060648201526084016106ec565b5060008051602061234983398151915290565b610a3733610ebc565b610a418261012d55565b61097781610cb9565b6000818152606760205260408120546001600160a01b0316806105b95760405162461bcd60e51b8152602060048201526018602482015277115490cdcc8c4e881a5b9d985b1a59081d1bdad95b88125160421b60448201526064016106ec565b61012e543414610aec5760405162461bcd60e51b815260206004820152600d60248201526c496e76616c696420507269636560981b60448201526064016106ec565b61012f805460010190819055604080516020810190915260008152610b12913391611345565b565b60006001600160a01b038216610b7e5760405162461bcd60e51b815260206004820152602960248201527f4552433732313a2061646472657373207a65726f206973206e6f7420612076616044820152683634b21037bbb732b960b91b60648201526084016106ec565b506001600160a01b031660009081526068602052604090205490565b610ba2611378565b610b1260006113d2565b6000838152606760205260409020546001600160a01b0316610c075760405162461bcd60e51b8152602060048201526014602482015273151bdad95b88185b1c9958591e481b5a5b9d195960621b60448201526064016106ec565b6040516bffffffffffffffffffffffff193360601b166020820152603481018490526000906054016040516020818303038152906040528051906020012090506000610c58848461012d5485611424565b905080610c985760405162461bcd60e51b815260206004820152600e60248201526d24b73b30b634b210383937b7b31760911b60448201526064016106ec565b610cb2338660405180602001604052806000815250611345565b5050505050565b610cc1611378565b61012e55565b6060606680546105ce9061205a565b61097733838361143c565b60608167ffffffffffffffff811115610cfc57610cfc611d34565b604051908082528060200260200182016040528015610d2f57816020015b6060815260200190600190039081610d1a5790505b50905060005b82811015610dcf57610d9f30858584818110610d5357610d53612179565b9050602002810190610d65919061218f565b8080601f01602080910402602001604051908101604052809392919081815260200183838082843760009201919091525061150a92505050565b828281518110610db157610db1612179565b60200260200101819052508080610dc7906121d6565b915050610d35565b5092915050565b610de03383610ff7565b610dfc5760405162461bcd60e51b81526004016106ec90612094565b610e088484848461152f565b50505050565b6060610e1982610f2a565b6000610e3060408051602081019091526000815290565b90506000815111610e505760405180602001604052806000815250610e7b565b80610e5a84611562565b604051602001610e6b9291906121fd565b6040516020818303038152906040525b9392505050565b60fb546040516001600160a01b039091169082156108fc029083906000818181858888f19350505050158015610977573d6000803e3d6000fd5b6001600160a01b038116610f215760405162461bcd60e51b815260206004820152602660248201527f4f776e61626c653a206e6577206f776e657220697320746865207a65726f206160448201526564647265737360d01b60648201526084016106ec565b610896816113d2565b6000818152606760205260409020546001600160a01b03166108965760405162461bcd60e51b8152602060048201526018602482015277115490cdcc8c4e881a5b9d985b1a59081d1bdad95b88125160421b60448201526064016106ec565b600081815260696020526040902080546001600160a01b0319166001600160a01b0384169081179091558190610fbe82610a4a565b6001600160a01b03167f8c5be1e5ebec7d5bd14f71427d1e84f3dd0314c0f7b2291e5b200ac8c7c3b92560405160405180910390a45050565b60008061100383610a4a565b9050806001600160a01b0316846001600160a01b0316148061104a57506001600160a01b038082166000908152606a602090815260408083209388168352929052205460ff165b8061106e5750836001600160a01b031661106384610651565b6001600160a01b0316145b949350505050565b826001600160a01b031661108982610a4a565b6001600160a01b0316146110af5760405162461bcd60e51b81526004016106ec9061222c565b6001600160a01b0382166111115760405162461bcd60e51b8152602060048201526024808201527f4552433732313a207472616e7366657220746f20746865207a65726f206164646044820152637265737360e01b60648201526084016106ec565b826001600160a01b031661112482610a4a565b6001600160a01b03161461114a5760405162461bcd60e51b81526004016106ec9061222c565b600081815260696020908152604080832080546001600160a01b03199081169091556001600160a01b0387811680865260688552838620805460001901905590871680865283862080546001019055868652606790945282852080549092168417909155905184937fddf252ad1be2c89b69c2b068fc378daa952ba7f163c4a11628f55a4df523b3ef91a4505050565b7f4910fdfa16fed3260ed0e7147f7cc6da11a60208b5b9406d12a635614ffd91435460ff161561120d5761078d836115f5565b826001600160a01b03166352d1902d6040518163ffffffff1660e01b8152600401602060405180830381865afa925050508015611267575060408051601f3d908101601f1916820190925261126491810190612271565b60015b6112ca5760405162461bcd60e51b815260206004820152602e60248201527f45524331393637557067726164653a206e657720696d706c656d656e7461746960448201526d6f6e206973206e6f74205555505360901b60648201526084016106ec565b60008051602061234983398151915281146113395760405162461bcd60e51b815260206004820152602960248201527f45524331393637557067726164653a20756e737570706f727465642070726f786044820152681a58589b195555525160ba1b60648201526084016106ec565b5061078d838383611691565b61134f83836116b6565b61135c6000848484611841565b61078d5760405162461bcd60e51b81526004016106ec9061228a565b60fb546001600160a01b03163314610b125760405162461bcd60e51b815260206004820181905260248201527f4f776e61626c653a2063616c6c6572206973206e6f7420746865206f776e657260448201526064016106ec565b60fb80546001600160a01b038381166001600160a01b0319831681179093556040519116919082907f8be0079c531659141344cd1fd0a4f28419497f9722a3daafe3b4186f6b6457e090600090a35050565b60008261143286868561193f565b1495945050505050565b816001600160a01b0316836001600160a01b03160361149d5760405162461bcd60e51b815260206004820152601960248201527f4552433732313a20617070726f766520746f2063616c6c65720000000000000060448201526064016106ec565b6001600160a01b038381166000818152606a6020908152604080832094871680845294825291829020805460ff191686151590811790915591519182527f17307eab39ab6107e8899845ad3d59bd9653f200f220920489ca2b5937696c31910160405180910390a3505050565b6060610e7b83836040518060600160405280602781526020016123696027913961198b565b61153a848484611076565b61154684848484611841565b610e085760405162461bcd60e51b81526004016106ec9061228a565b6060600061156f83611a03565b600101905060008167ffffffffffffffff81111561158f5761158f611d34565b6040519080825280601f01601f1916602001820160405280156115b9576020820181803683370190505b5090508181016020015b600019016f181899199a1a9b1b9c1cb0b131b232b360811b600a86061a8153600a85049450846115c357509392505050565b6001600160a01b0381163b6116625760405162461bcd60e51b815260206004820152602d60248201527f455243313936373a206e657720696d706c656d656e746174696f6e206973206e60448201526c1bdd08184818dbdb9d1c9858dd609a1b60648201526084016106ec565b60008051602061234983398151915280546001600160a01b0319166001600160a01b0392909216919091179055565b61169a83611adb565b6000825111806116a75750805b1561078d57610e08838361150a565b6001600160a01b03821661170c5760405162461bcd60e51b815260206004820181905260248201527f4552433732313a206d696e7420746f20746865207a65726f206164647265737360448201526064016106ec565b6000818152606760205260409020546001600160a01b0316156117715760405162461bcd60e51b815260206004820152601c60248201527f4552433732313a20746f6b656e20616c7265616479206d696e7465640000000060448201526064016106ec565b6000818152606760205260409020546001600160a01b0316156117d65760405162461bcd60e51b815260206004820152601c60248201527f4552433732313a20746f6b656e20616c7265616479206d696e7465640000000060448201526064016106ec565b6001600160a01b038216600081815260686020908152604080832080546001019055848352606790915280822080546001600160a01b0319168417905551839291907fddf252ad1be2c89b69c2b068fc378daa952ba7f163c4a11628f55a4df523b3ef908290a45050565b60006001600160a01b0384163b1561193757604051630a85bd0160e11b81526001600160a01b0385169063150b7a02906118859033908990889088906004016122dc565b6020604051808303816000875af19250505080156118c0575060408051601f3d908101601f191682019092526118bd9181019061230f565b60015b61191d573d8080156118ee576040519150601f19603f3d011682016040523d82523d6000602084013e6118f3565b606091505b5080516000036119155760405162461bcd60e51b81526004016106ec9061228a565b805181602001fd5b6001600160e01b031916630a85bd0160e11b14905061106e565b50600161106e565b600081815b848110156119825761196e8287878481811061196257611962612179565b90506020020135611b1b565b91508061197a816121d6565b915050611944565b50949350505050565b6060600080856001600160a01b0316856040516119a8919061232c565b600060405180830381855af49150503d80600081146119e3576040519150601f19603f3d011682016040523d82523d6000602084013e6119e8565b606091505b50915091506119f986838387611b4a565b9695505050505050565b60008072184f03e93ff9f4daa797ed6e38ed64bf6a1f0160401b8310611a425772184f03e93ff9f4daa797ed6e38ed64bf6a1f0160401b830492506040015b6d04ee2d6d415b85acef81000000008310611a6e576d04ee2d6d415b85acef8100000000830492506020015b662386f26fc100008310611a8c57662386f26fc10000830492506010015b6305f5e1008310611aa4576305f5e100830492506008015b6127108310611ab857612710830492506004015b60648310611aca576064830492506002015b600a83106105b95760010192915050565b611ae4816115f5565b6040516001600160a01b038216907fbc7cd75a20ee27fd9adebab32041f755214dbc6bffa90cc0225b39da2e5c2d3b90600090a250565b6000818310611b37576000828152602084905260409020610e7b565b6000838152602083905260409020610e7b565b60608315611bb9578251600003611bb2576001600160a01b0385163b611bb25760405162461bcd60e51b815260206004820152601d60248201527f416464726573733a2063616c6c20746f206e6f6e2d636f6e747261637400000060448201526064016106ec565b508161106e565b61106e8383815115611bce5781518083602001fd5b8060405162461bcd60e51b81526004016106ec9190611c6b565b6001600160e01b03198116811461089657600080fd5b600060208284031215611c1057600080fd5b8135610e7b81611be8565b60005b83811015611c36578181015183820152602001611c1e565b50506000910152565b60008151808452611c57816020860160208601611c1b565b601f01601f19169290920160200192915050565b602081526000610e7b6020830184611c3f565b600060208284031215611c9057600080fd5b5035919050565b80356001600160a01b0381168114611cae57600080fd5b919050565b60008060408385031215611cc657600080fd5b611ccf83611c97565b946020939093013593505050565b600080600060608486031215611cf257600080fd5b611cfb84611c97565b9250611d0960208501611c97565b9150604084013590509250925092565b600060208284031215611d2b57600080fd5b610e7b82611c97565b634e487b7160e01b600052604160045260246000fd5b600082601f830112611d5b57600080fd5b813567ffffffffffffffff80821115611d7657611d76611d34565b604051601f8301601f19908116603f01168101908282118183101715611d9e57611d9e611d34565b81604052838152866020858801011115611db757600080fd5b836020870160208301376000602085830101528094505050505092915050565b60008060408385031215611dea57600080fd5b611df383611c97565b9150602083013567ffffffffffffffff811115611e0f57600080fd5b611e1b85828601611d4a565b9150509250929050565b60008060408385031215611e3857600080fd5b50508035926020909101359150565b60008083601f840112611e5957600080fd5b50813567ffffffffffffffff811115611e7157600080fd5b6020830191508360208260051b8501011115611e8c57600080fd5b9250929050565b600080600060408486031215611ea857600080fd5b83359250602084013567ffffffffffffffff811115611ec657600080fd5b611ed286828701611e47565b9497909650939450505050565b60008060408385031215611ef257600080fd5b611efb83611c97565b915060208301358015158114611f1057600080fd5b809150509250929050565b60008060208385031215611f2e57600080fd5b823567ffffffffffffffff811115611f4557600080fd5b611f5185828601611e47565b90969095509350505050565b6000602080830181845280855180835260408601915060408160051b870101925083870160005b82811015611fb257603f19888603018452611fa0858351611c3f565b94509285019290850190600101611f84565b5092979650505050505050565b60008060008060808587031215611fd557600080fd5b611fde85611c97565b9350611fec60208601611c97565b925060408501359150606085013567ffffffffffffffff81111561200f57600080fd5b61201b87828801611d4a565b91505092959194509250565b6000806040838503121561203a57600080fd5b61204383611c97565b915061205160208401611c97565b90509250929050565b600181811c9082168061206e57607f821691505b60208210810361208e57634e487b7160e01b600052602260045260246000fd5b50919050565b6020808252602d908201527f4552433732313a2063616c6c6572206973206e6f7420746f6b656e206f776e6560408201526c1c881bdc88185c1c1c9bdd9959609a1b606082015260800190565b6020808252602c908201527f46756e6374696f6e206d7573742062652063616c6c6564207468726f7567682060408201526b19195b1959d85d1958d85b1b60a21b606082015260800190565b6020808252602c908201527f46756e6374696f6e206d7573742062652063616c6c6564207468726f7567682060408201526b6163746976652070726f787960a01b606082015260800190565b634e487b7160e01b600052603260045260246000fd5b6000808335601e198436030181126121a657600080fd5b83018035915067ffffffffffffffff8211156121c157600080fd5b602001915036819003821315611e8c57600080fd5b6000600182016121f657634e487b7160e01b600052601160045260246000fd5b5060010190565b6000835161220f818460208801611c1b565b835190830190612223818360208801611c1b565b01949350505050565b60208082526025908201527f4552433732313a207472616e736665722066726f6d20696e636f72726563742060408201526437bbb732b960d91b606082015260800190565b60006020828403121561228357600080fd5b5051919050565b60208082526032908201527f4552433732313a207472616e7366657220746f206e6f6e20455243373231526560408201527131b2b4bb32b91034b6b83632b6b2b73a32b960711b606082015260800190565b6001600160a01b03858116825284166020820152604081018390526080606082018190526000906119f990830184611c3f565b60006020828403121561232157600080fd5b8151610e7b81611be8565b6000825161233e818460208701611c1b565b919091019291505056fe360894a13ba1a3210667c828492db98dca3e2076cc3735a920a3ca505d382bbc416464726573733a206c6f772d6c6576656c2064656c65676174652063616c6c206661696c6564a2646970667358221220d3b19d14ebf329409cb643d1be4c0ab8d43edcd28b72527ad709b373604ca26664736f6c63430008150033","linkReferences":{}},"methodIdentifiers":{"approve(address,uint256)":"095ea7b3","balanceOf(address)":"70a08231","getApproved(uint256)":"081812fc","idCounter()":"eb08ab28","initialize(bytes32,uint256)":"5b36c66b","isApprovedForAll(address,address)":"e985e9c5","merkleRoot()":"2eb4a7ab","mintAirdrops(uint256,bytes32[])":"84296eb7","mintBuyWithETH()":"658a7227","multicall(bytes[])":"ac9650d8","name()":"06fdde03","owner()":"8da5cb5b","ownerOf(uint256)":"6352211e","price()":"a035b1fe","proxiableUUID()":"52d1902d","renounceOwnership()":"715018a6","safeTransferFrom(address,address,uint256)":"42842e0e","safeTransferFrom(address,address,uint256,bytes)":"b88d4fde","setApprovalForAll(address,bool)":"a22cb465","setMerkleRoot(bytes32)":"7cb64759","setPrice(uint256)":"91b7f5ed","supportsInterface(bytes4)":"01ffc9a7","symbol()":"95d89b41","tokenURI(uint256)":"c87b56dd","transferFrom(address,address,uint256)":"23b872dd","transferOwnership(address)":"f2fde38b","upgradeTo(address)":"3659cfe6","upgradeToAndCall(address,bytes)":"4f1ef286","withdrawETH(uint256)":"f14210a6"},"id":49}