{"abi":[{"type":"function","name":"allowance","inputs":[{"name":"owner","type":"address","internalType":"address"},{"name":"spender","type":"address","internalType":"address"}],"outputs":[{"name":"","type":"uint256","internalType":"uint256"}],"stateMutability":"view"},{"type":"function","name":"approve","inputs":[{"name":"spender","type":"address","internalType":"address"},{"name":"amount","type":"uint256","internalType":"uint256"}],"outputs":[{"name":"","type":"bool","internalType":"bool"}],"stateMutability":"nonpayable"},{"type":"function","name":"balanceOf","inputs":[{"name":"account","type":"address","internalType":"address"}],"outputs":[{"name":"","type":"uint256","internalType":"uint256"}],"stateMutability":"view"},{"type":"function","name":"burnToken","inputs":[{"name":"account","type":"address","internalType":"address"},{"name":"amount","type":"uint256","internalType":"uint256"}],"outputs":[],"stateMutability":"nonpayable"},{"type":"function","name":"decimals","inputs":[],"outputs":[{"name":"","type":"uint8","internalType":"uint8"}],"stateMutability":"view"},{"type":"function","name":"decreaseAllowance","inputs":[{"name":"spender","type":"address","internalType":"address"},{"name":"subtractedValue","type":"uint256","internalType":"uint256"}],"outputs":[{"name":"","type":"bool","internalType":"bool"}],"stateMutability":"nonpayable"},{"type":"function","name":"halbornLoans","inputs":[],"outputs":[{"name":"","type":"address","internalType":"address"}],"stateMutability":"view"},{"type":"function","name":"increaseAllowance","inputs":[{"name":"spender","type":"address","internalType":"address"},{"name":"addedValue","type":"uint256","internalType":"uint256"}],"outputs":[{"name":"","type":"bool","internalType":"bool"}],"stateMutability":"nonpayable"},{"type":"function","name":"initialize","inputs":[],"outputs":[],"stateMutability":"nonpayable"},{"type":"function","name":"mintToken","inputs":[{"name":"account","type":"address","internalType":"address"},{"name":"amount","type":"uint256","internalType":"uint256"}],"outputs":[],"stateMutability":"nonpayable"},{"type":"function","name":"multicall","inputs":[{"name":"data","type":"bytes[]","internalType":"bytes[]"}],"outputs":[{"name":"results","type":"bytes[]","internalType":"bytes[]"}],"stateMutability":"payable"},{"type":"function","name":"name","inputs":[],"outputs":[{"name":"","type":"string","internalType":"string"}],"stateMutability":"view"},{"type":"function","name":"owner","inputs":[],"outputs":[{"name":"","type":"address","internalType":"address"}],"stateMutability":"view"},{"type":"function","name":"proxiableUUID","inputs":[],"outputs":[{"name":"","type":"bytes32","internalType":"bytes32"}],"stateMutability":"view"},{"type":"function","name":"renounceOwnership","inputs":[],"outputs":[],"stateMutability":"nonpayable"},{"type":"function","name":"setLoans","inputs":[{"name":"halbornLoans_","type":"address","internalType":"address"}],"outputs":[],"stateMutability":"nonpayable"},{"type":"function","name":"symbol","inputs":[],"outputs":[{"name":"","type":"string","internalType":"string"}],"stateMutability":"view"},{"type":"function","name":"totalSupply","inputs":[],"outputs":[{"name":"","type":"uint256","internalType":"uint256"}],"stateMutability":"view"},{"type":"function","name":"transfer","inputs":[{"name":"to","type":"address","internalType":"address"},{"name":"amount","type":"uint256","internalType":"uint256"}],"outputs":[{"name":"","type":"bool","internalType":"bool"}],"stateMutability":"nonpayable"},{"type":"function","name":"transferFrom","inputs":[{"name":"from","type":"address","internalType":"address"},{"name":"to","type":"address","internalType":"address"},{"name":"amount","type":"uint256","internalType":"uint256"}],"outputs":[{"name":"","type":"bool","internalType":"bool"}],"stateMutability":"nonpayable"},{"type":"function","name":"transferOwnership","inputs":[{"name":"newOwner","type":"address","internalType":"address"}],"outputs":[],"stateMutability":"nonpayable"},{"type":"function","name":"upgradeTo","inputs":[{"name":"newImplementation","type":"address","internalType":"address"}],"outputs":[],"stateMutability":"nonpayable"},{"type":"function","name":"upgradeToAndCall","inputs":[{"name":"newImplementation","type":"address","internalType":"address"},{"name":"data","type":"bytes","internalType":"bytes"}],"outputs":[],"stateMutability":"payable"},{"type":"event","name":"AdminChanged","inputs":[{"name":"previousAdmin","type":"address","indexed":false,"internalType":"address"},{"name":"newAdmin","type":"address","indexed":false,"internalType":"address"}],"anonymous":false},{"type":"event","name":"Approval","inputs":[{"name":"owner","type":"address","indexed":true,"internalType":"address"},{"name":"spender","type":"address","indexed":true,"internalType":"address"},{"name":"value","type":"uint256","indexed":false,"internalType":"uint256"}],"anonymous":false},{"type":"event","name":"BeaconUpgraded","inputs":[{"name":"beacon","type":"address","indexed":true,"internalType":"address"}],"anonymous":false},{"type":"event","name":"Initialized","inputs":[{"name":"version","type":"uint8","indexed":false,"internalType":"uint8"}],"anonymous":false},{"type":"event","name":"OwnershipTransferred","inputs":[{"name":"previousOwner","type":"address","indexed":true,"internalType":"address"},{"name":"newOwner","type":"address","indexed":true,"internalType":"address"}],"anonymous":false},{"type":"event","name":"Transfer","inputs":[{"name":"from","type":"address","indexed":true,"internalType":"address"},{"name":"to","type":"address","indexed":true,"internalType":"address"},{"name":"value","type":"uint256","indexed":false,"internalType":"uint256"}],"anonymous":false},{"type":"event","name":"Upgraded","inputs":[{"name":"implementation","type":"address","indexed":true,"internalType":"address"}],"anonymous":false}],"bytecode":{"object":"0x60a06040523060805234801561001457600080fd5b50608051611d7861004c600039600081816105060152818161054f015281816106100152818161065001526106e30152611d786000f3fe6080604052600436106101405760003560e01c806379c65068116100b6578063a9059cbb1161006f578063a9059cbb1461036c578063ac9650d81461038c578063b18a7dd8146103ac578063d1df306c146103cc578063dd62ed3e146103ec578063f2fde38b1461040c57600080fd5b806379c65068146102b05780638129fc1c146102d05780638da5cb5b146102e557806395d89b41146103175780639d06bcea1461032c578063a457c2d71461034c57600080fd5b80633659cfe6116101085780633659cfe6146101fb578063395093511461021d5780634f1ef2861461023d57806352d1902d1461025057806370a0823114610265578063715018a61461029b57600080fd5b806306fdde0314610145578063095ea7b31461017057806318160ddd146101a057806323b872dd146101bf578063313ce567146101df575b600080fd5b34801561015157600080fd5b5061015a61042c565b6040516101679190611763565b60405180910390f35b34801561017c57600080fd5b5061019061018b366004611792565b6104be565b6040519015158152602001610167565b3480156101ac57600080fd5b506035545b604051908152602001610167565b3480156101cb57600080fd5b506101906101da3660046117bc565b6104d8565b3480156101eb57600080fd5b5060405160128152602001610167565b34801561020757600080fd5b5061021b6102163660046117f8565b6104fc565b005b34801561022957600080fd5b50610190610238366004611792565b6105e4565b61021b61024b366004611829565b610606565b34801561025c57600080fd5b506101b16106d6565b34801561027157600080fd5b506101b16102803660046117f8565b6001600160a01b031660009081526033602052604090205490565b3480156102a757600080fd5b5061021b610789565b3480156102bc57600080fd5b5061021b6102cb366004611792565b61079d565b3480156102dc57600080fd5b5061021b610801565b3480156102f157600080fd5b5060c9546001600160a01b03165b6040516001600160a01b039091168152602001610167565b34801561032357600080fd5b5061015a610969565b34801561033857600080fd5b5061021b6103473660046117f8565b610978565b34801561035857600080fd5b50610190610367366004611792565b6109e7565b34801561037857600080fd5b50610190610387366004611792565b610a62565b61039f61039a3660046118eb565b610a70565b6040516101679190611960565b3480156103b857600080fd5b5060fb546102ff906001600160a01b031681565b3480156103d857600080fd5b5061021b6103e7366004611792565b610b65565b3480156103f857600080fd5b506101b16104073660046119c2565b610bc9565b34801561041857600080fd5b5061021b6104273660046117f8565b610bf4565b60606036805461043b906119f5565b80601f0160208091040260200160405190810160405280929190818152602001828054610467906119f5565b80156104b45780601f10610489576101008083540402835291602001916104b4565b820191906000526020600020905b81548152906001019060200180831161049757829003601f168201915b5050505050905090565b6000336104cc818585610c6a565b60019150505b92915050565b6000336104e6858285610d8e565b6104f1858585610e08565b506001949350505050565b6001600160a01b037f000000000000000000000000000000000000000000000000000000000000000016300361054d5760405162461bcd60e51b815260040161054490611a2f565b60405180910390fd5b7f00000000000000000000000000000000000000000000000000000000000000006001600160a01b0316610596600080516020611cfc833981519152546001600160a01b031690565b6001600160a01b0316146105bc5760405162461bcd60e51b815260040161054490611a7b565b6105c581610fb3565b604080516000808252602082019092526105e191839190610fbb565b50565b6000336104cc8185856105f78383610bc9565b6106019190611add565b610c6a565b6001600160a01b037f000000000000000000000000000000000000000000000000000000000000000016300361064e5760405162461bcd60e51b815260040161054490611a2f565b7f00000000000000000000000000000000000000000000000000000000000000006001600160a01b0316610697600080516020611cfc833981519152546001600160a01b031690565b6001600160a01b0316146106bd5760405162461bcd60e51b815260040161054490611a7b565b6106c682610fb3565b6106d282826001610fbb565b5050565b6000306001600160a01b037f000000000000000000000000000000000000000000000000000000000000000016146107765760405162461bcd60e51b815260206004820152603860248201527f555550535570677261646561626c653a206d757374206e6f742062652063616c60448201527f6c6564207468726f7567682064656c656761746563616c6c00000000000000006064820152608401610544565b50600080516020611cfc83398151915290565b61079161112b565b61079b6000611185565b565b60fb546001600160a01b031633146107f75760405162461bcd60e51b815260206004820152601a60248201527f43616c6c6572206973206e6f742048616c626f726e4c6f616e730000000000006044820152606401610544565b6106d282826111d7565b600054610100900460ff16158080156108215750600054600160ff909116105b8061083b5750303b15801561083b575060005460ff166001145b61089e5760405162461bcd60e51b815260206004820152602e60248201527f496e697469616c697a61626c653a20636f6e747261637420697320616c72656160448201526d191e481a5b9a5d1a585b1a5e995960921b6064820152608401610544565b6000805460ff1916600117905580156108c1576000805461ff0019166101001790555b6109096040518060400160405280600c81526020016b2430b63137b9372a37b5b2b760a11b81525060405180604001604052806002815260200161121560f21b815250611298565b6109116112c9565b6109196112f0565b6109216112c9565b80156105e1576000805461ff0019169055604051600181527f7f26b83ff96e1f2b6a682f133852f6798a09c465da95921460cefb38474024989060200160405180910390a150565b60606037805461043b906119f5565b61098061112b565b6001600160a01b0381166109c55760405162461bcd60e51b815260206004820152600c60248201526b5a65726f204164647265737360a01b6044820152606401610544565b60fb80546001600160a01b0319166001600160a01b0392909216919091179055565b600033816109f58286610bc9565b905083811015610a555760405162461bcd60e51b815260206004820152602560248201527f45524332303a2064656372656173656420616c6c6f77616e63652062656c6f77604482015264207a65726f60d81b6064820152608401610544565b6104f18286868403610c6a565b6000336104cc818585610e08565b60608167ffffffffffffffff811115610a8b57610a8b611813565b604051908082528060200260200182016040528015610abe57816020015b6060815260200190600190039081610aa95790505b50905060005b82811015610b5e57610b2e30858584818110610ae257610ae2611af0565b9050602002810190610af49190611b06565b8080601f01602080910402602001604051908101604052809392919081815260200183838082843760009201919091525061131f92505050565b828281518110610b4057610b40611af0565b60200260200101819052508080610b5690611b54565b915050610ac4565b5092915050565b60fb546001600160a01b03163314610bbf5760405162461bcd60e51b815260206004820152601a60248201527f43616c6c6572206973206e6f742048616c626f726e4c6f616e730000000000006044820152606401610544565b6106d2828261134b565b6001600160a01b03918216600090815260346020908152604080832093909416825291909152205490565b610bfc61112b565b6001600160a01b038116610c615760405162461bcd60e51b815260206004820152602660248201527f4f776e61626c653a206e6577206f776e657220697320746865207a65726f206160448201526564647265737360d01b6064820152608401610544565b6105e181611185565b6001600160a01b038316610ccc5760405162461bcd60e51b8152602060048201526024808201527f45524332303a20617070726f76652066726f6d20746865207a65726f206164646044820152637265737360e01b6064820152608401610544565b6001600160a01b038216610d2d5760405162461bcd60e51b815260206004820152602260248201527f45524332303a20617070726f766520746f20746865207a65726f206164647265604482015261737360f01b6064820152608401610544565b6001600160a01b0383811660008181526034602090815260408083209487168084529482529182902085905590518481527f8c5be1e5ebec7d5bd14f71427d1e84f3dd0314c0f7b2291e5b200ac8c7c3b925910160405180910390a3505050565b6000610d9a8484610bc9565b90506000198114610e025781811015610df55760405162461bcd60e51b815260206004820152601d60248201527f45524332303a20696e73756666696369656e7420616c6c6f77616e63650000006044820152606401610544565b610e028484848403610c6a565b50505050565b6001600160a01b038316610e6c5760405162461bcd60e51b815260206004820152602560248201527f45524332303a207472616e736665722066726f6d20746865207a65726f206164604482015264647265737360d81b6064820152608401610544565b6001600160a01b038216610ece5760405162461bcd60e51b815260206004820152602360248201527f45524332303a207472616e7366657220746f20746865207a65726f206164647260448201526265737360e81b6064820152608401610544565b6001600160a01b03831660009081526033602052604090205481811015610f465760405162461bcd60e51b815260206004820152602660248201527f45524332303a207472616e7366657220616d6f756e7420657863656564732062604482015265616c616e636560d01b6064820152608401610544565b6001600160a01b0380851660008181526033602052604080822086860390559286168082529083902080548601905591517fddf252ad1be2c89b69c2b068fc378daa952ba7f163c4a11628f55a4df523b3ef90610fa69086815260200190565b60405180910390a3610e02565b6105e161112b565b7f4910fdfa16fed3260ed0e7147f7cc6da11a60208b5b9406d12a635614ffd91435460ff1615610ff357610fee8361147f565b505050565b826001600160a01b03166352d1902d6040518163ffffffff1660e01b8152600401602060405180830381865afa92505050801561104d575060408051601f3d908101601f1916820190925261104a91810190611b6d565b60015b6110b05760405162461bcd60e51b815260206004820152602e60248201527f45524331393637557067726164653a206e657720696d706c656d656e7461746960448201526d6f6e206973206e6f74205555505360901b6064820152608401610544565b600080516020611cfc833981519152811461111f5760405162461bcd60e51b815260206004820152602960248201527f45524331393637557067726164653a20756e737570706f727465642070726f786044820152681a58589b195555525160ba1b6064820152608401610544565b50610fee83838361151b565b60c9546001600160a01b0316331461079b5760405162461bcd60e51b815260206004820181905260248201527f4f776e61626c653a2063616c6c6572206973206e6f7420746865206f776e65726044820152606401610544565b60c980546001600160a01b038381166001600160a01b0319831681179093556040519116919082907f8be0079c531659141344cd1fd0a4f28419497f9722a3daafe3b4186f6b6457e090600090a35050565b6001600160a01b03821661122d5760405162461bcd60e51b815260206004820152601f60248201527f45524332303a206d696e7420746f20746865207a65726f2061646472657373006044820152606401610544565b806035600082825461123f9190611add565b90915550506001600160a01b0382166000818152603360209081526040808320805486019055518481527fddf252ad1be2c89b69c2b068fc378daa952ba7f163c4a11628f55a4df523b3ef910160405180910390a35050565b600054610100900460ff166112bf5760405162461bcd60e51b815260040161054490611b86565b6106d28282611540565b600054610100900460ff1661079b5760405162461bcd60e51b815260040161054490611b86565b600054610100900460ff166113175760405162461bcd60e51b815260040161054490611b86565b61079b611580565b60606113448383604051806060016040528060278152602001611d1c602791396115b0565b9392505050565b6001600160a01b0382166113ab5760405162461bcd60e51b815260206004820152602160248201527f45524332303a206275726e2066726f6d20746865207a65726f206164647265736044820152607360f81b6064820152608401610544565b6001600160a01b0382166000908152603360205260409020548181101561141f5760405162461bcd60e51b815260206004820152602260248201527f45524332303a206275726e20616d6f756e7420657863656564732062616c616e604482015261636560f01b6064820152608401610544565b6001600160a01b03831660008181526033602090815260408083208686039055603580548790039055518581529192917fddf252ad1be2c89b69c2b068fc378daa952ba7f163c4a11628f55a4df523b3ef910160405180910390a3505050565b6001600160a01b0381163b6114ec5760405162461bcd60e51b815260206004820152602d60248201527f455243313936373a206e657720696d706c656d656e746174696f6e206973206e60448201526c1bdd08184818dbdb9d1c9858dd609a1b6064820152608401610544565b600080516020611cfc83398151915280546001600160a01b0319166001600160a01b0392909216919091179055565b61152483611628565b6000825111806115315750805b15610fee57610e02838361131f565b600054610100900460ff166115675760405162461bcd60e51b815260040161054490611b86565b60366115738382611c1f565b506037610fee8282611c1f565b600054610100900460ff166115a75760405162461bcd60e51b815260040161054490611b86565b61079b33611185565b6060600080856001600160a01b0316856040516115cd9190611cdf565b600060405180830381855af49150503d8060008114611608576040519150601f19603f3d011682016040523d82523d6000602084013e61160d565b606091505b509150915061161e86838387611668565b9695505050505050565b6116318161147f565b6040516001600160a01b038216907fbc7cd75a20ee27fd9adebab32041f755214dbc6bffa90cc0225b39da2e5c2d3b90600090a250565b606083156116d75782516000036116d0576001600160a01b0385163b6116d05760405162461bcd60e51b815260206004820152601d60248201527f416464726573733a2063616c6c20746f206e6f6e2d636f6e74726163740000006044820152606401610544565b50816116e1565b6116e183836116e9565b949350505050565b8151156116f95781518083602001fd5b8060405162461bcd60e51b81526004016105449190611763565b60005b8381101561172e578181015183820152602001611716565b50506000910152565b6000815180845261174f816020860160208601611713565b601f01601f19169290920160200192915050565b6020815260006113446020830184611737565b80356001600160a01b038116811461178d57600080fd5b919050565b600080604083850312156117a557600080fd5b6117ae83611776565b946020939093013593505050565b6000806000606084860312156117d157600080fd5b6117da84611776565b92506117e860208501611776565b9150604084013590509250925092565b60006020828403121561180a57600080fd5b61134482611776565b634e487b7160e01b600052604160045260246000fd5b6000806040838503121561183c57600080fd5b61184583611776565b9150602083013567ffffffffffffffff8082111561186257600080fd5b818501915085601f83011261187657600080fd5b81358181111561188857611888611813565b604051601f8201601f19908116603f011681019083821181831017156118b0576118b0611813565b816040528281528860208487010111156118c957600080fd5b8260208601602083013760006020848301015280955050505050509250929050565b600080602083850312156118fe57600080fd5b823567ffffffffffffffff8082111561191657600080fd5b818501915085601f83011261192a57600080fd5b81358181111561193957600080fd5b8660208260051b850101111561194e57600080fd5b60209290920196919550909350505050565b6000602080830181845280855180835260408601915060408160051b870101925083870160005b828110156119b557603f198886030184526119a3858351611737565b94509285019290850190600101611987565b5092979650505050505050565b600080604083850312156119d557600080fd5b6119de83611776565b91506119ec60208401611776565b90509250929050565b600181811c90821680611a0957607f821691505b602082108103611a2957634e487b7160e01b600052602260045260246000fd5b50919050565b6020808252602c908201527f46756e6374696f6e206d7573742062652063616c6c6564207468726f7567682060408201526b19195b1959d85d1958d85b1b60a21b606082015260800190565b6020808252602c908201527f46756e6374696f6e206d7573742062652063616c6c6564207468726f7567682060408201526b6163746976652070726f787960a01b606082015260800190565b634e487b7160e01b600052601160045260246000fd5b808201808211156104d2576104d2611ac7565b634e487b7160e01b600052603260045260246000fd5b6000808335601e19843603018112611b1d57600080fd5b83018035915067ffffffffffffffff821115611b3857600080fd5b602001915036819003821315611b4d57600080fd5b9250929050565b600060018201611b6657611b66611ac7565b5060010190565b600060208284031215611b7f57600080fd5b5051919050565b6020808252602b908201527f496e697469616c697a61626c653a20636f6e7472616374206973206e6f74206960408201526a6e697469616c697a696e6760a81b606082015260800190565b601f821115610fee57600081815260208120601f850160051c81016020861015611bf85750805b601f850160051c820191505b81811015611c1757828155600101611c04565b505050505050565b815167ffffffffffffffff811115611c3957611c39611813565b611c4d81611c4784546119f5565b84611bd1565b602080601f831160018114611c825760008415611c6a5750858301515b600019600386901b1c1916600185901b178555611c17565b600085815260208120601f198616915b82811015611cb157888601518255948401946001909101908401611c92565b5085821015611ccf5787850151600019600388901b60f8161c191681555b5050505050600190811b01905550565b60008251611cf1818460208701611713565b919091019291505056fe360894a13ba1a3210667c828492db98dca3e2076cc3735a920a3ca505d382bbc416464726573733a206c6f772d6c6576656c2064656c65676174652063616c6c206661696c6564a2646970667358221220693f281f7a585834e8adf6f2e65102406f80b7caccd429d09eb35f93ad22b2ad64736f6c63430008150033","linkReferences":{}},"methodIdentifiers":{"allowance(address,address)":"dd62ed3e","approve(address,uint256)":"095ea7b3","balanceOf(address)":"70a08231","burnToken(address,uint256)":"d1df306c","decimals()":"313ce567","decreaseAllowance(address,uint256)":"a457c2d7","halbornLoans()":"b18a7dd8","increaseAllowance(address,uint256)":"39509351","initialize()":"8129fc1c","mintToken(address,uint256)":"79c65068","multicall(bytes[])":"ac9650d8","name()":"06fdde03","owner()":"8da5cb5b","proxiableUUID()":"52d1902d","renounceOwnership()":"715018a6","setLoans(address)":"9d06bcea","symbol()":"95d89b41","totalSupply()":"18160ddd","transfer(address,uint256)":"a9059cbb","transferFrom(address,address,uint256)":"23b872dd","transferOwnership(address)":"f2fde38b","upgradeTo(address)":"3659cfe6","upgradeToAndCall(address,bytes)":"4f1ef286"},"id":57}