{"abi":[{"type":"constructor","inputs":[{"name":"collateralPrice_","type":"uint256","internalType":"uint256"}],"stateMutability":"nonpayable"},{"type":"function","name":"collateralPrice","inputs":[],"outputs":[{"name":"","type":"uint256","internalType":"uint256"}],"stateMutability":"view"},{"type":"function","name":"depositNFTCollateral","inputs":[{"name":"id","type":"uint256","internalType":"uint256"}],"outputs":[],"stateMutability":"nonpayable"},{"type":"function","name":"getLoan","inputs":[{"name":"amount","type":"uint256","internalType":"uint256"}],"outputs":[],"stateMutability":"nonpayable"},{"type":"function","name":"idsCollateral","inputs":[{"name":"","type":"uint256","internalType":"uint256"}],"outputs":[{"name":"","type":"address","internalType":"address"}],"stateMutability":"view"},{"type":"function","name":"initialize","inputs":[{"name":"token_","type":"address","internalType":"address"},{"name":"nft_","type":"address","internalType":"address"}],"outputs":[],"stateMutability":"nonpayable"},{"type":"function","name":"multicall","inputs":[{"name":"data","type":"bytes[]","internalType":"bytes[]"}],"outputs":[{"name":"results","type":"bytes[]","internalType":"bytes[]"}],"stateMutability":"payable"},{"type":"function","name":"nft","inputs":[],"outputs":[{"name":"","type":"address","internalType":"contract HalbornNFT"}],"stateMutability":"view"},{"type":"function","name":"onERC721Received","inputs":[{"name":"","type":"address","internalType":"address"},{"name":"","type":"address","internalType":"address"},{"name":"","type":"uint256","internalType":"uint256"},{"name":"","type":"bytes","internalType":"bytes"}],"outputs":[{"name":"","type":"bytes4","internalType":"bytes4"}],"stateMutability":"pure"},{"type":"function","name":"proxiableUUID","inputs":[],"outputs":[{"name":"","type":"bytes32","internalType":"bytes32"}],"stateMutability":"view"},{"type":"function","name":"returnLoan","inputs":[{"name":"amount","type":"uint256","internalType":"uint256"}],"outputs":[],"stateMutability":"nonpayable"},{"type":"function","name":"token","inputs":[],"outputs":[{"name":"","type":"address","internalType":"contract HalbornToken"}],"stateMutability":"view"},{"type":"function","name":"totalCollateral","inputs":[{"name":"","type":"address","internalType":"address"}],"outputs":[{"name":"","type":"uint256","internalType":"uint256"}],"stateMutability":"view"},{"type":"function","name":"upgradeTo","inputs":[{"name":"newImplementation","type":"address","internalType":"address"}],"outputs":[],"stateMutability":"nonpayable"},{"type":"function","name":"upgradeToAndCall","inputs":[{"name":"newImplementation","type":"address","internalType":"address"},{"name":"data","type":"bytes","internalType":"bytes"}],"outputs":[],"stateMutability":"payable"},{"type":"function","name":"usedCollateral","inputs":[{"name":"","type":"address","internalType":"address"}],"outputs":[{"name":"","type":"uint256","internalType":"uint256"}],"stateMutability":"view"},{"type":"function","name":"withdrawCollateral","inputs":[{"name":"id","type":"uint256","internalType":"uint256"}],"outputs":[],"stateMutability":"nonpayable"},{"type":"event","name":"AdminChanged","inputs":[{"name":"previousAdmin","type":"address","indexed":false,"internalType":"address"},{"name":"newAdmin","type":"address","indexed":false,"internalType":"address"}],"anonymous":false},{"type":"event","name":"BeaconUpgraded","inputs":[{"name":"beacon","type":"address","indexed":true,"internalType":"address"}],"anonymous":false},{"type":"event","name":"Initialized","inputs":[{"name":"version","type":"uint8","indexed":false,"internalType":"uint8"}],"anonymous":false},{"type":"event","name":"Upgraded","inputs":[{"name":"implementation","type":"address","indexed":true,"internalType":"address"}],"anonymous":false}],"bytecode":{"object":"0x60c06040523060805234801561001457600080fd5b506040516117be3803806117be8339810160408190526100339161003b565b60a052610054565b60006020828403121561004d57600080fd5b5051919050565b60805160a0516117146100aa6000396000818161022401528181610830015281816109810152610b1c015260008181610380015281816103c9015281816105aa015281816105ea015261076c01526117146000f3fe6080604052600436106100f35760003560e01c80636112fe2e1161008a578063ac9650d811610059578063ac9650d8146102e0578063d52c1db214610300578063e912615414610336578063fc0c546a1461035657600080fd5b80636112fe2e14610246578063647fd8ef146102665780637e059b221461028657806390f20d15146102b357600080fd5b80634f1ef286116100c65780634f1ef286146101bc578063504006ca146101cf57806352d1902d146101ef5780635891de721461021257600080fd5b8063150b7a02146100f85780633659cfe61461014257806347ccca0214610164578063485cc9551461019c575b600080fd5b34801561010457600080fd5b506101246101133660046111d2565b630a85bd0160e11b95945050505050565b6040516001600160e01b031990911681526020015b60405180910390f35b34801561014e57600080fd5b5061016261015d366004611271565b610376565b005b34801561017057600080fd5b50606654610184906001600160a01b031681565b6040516001600160a01b039091168152602001610139565b3480156101a857600080fd5b506101626101b736600461128e565b610455565b6101626101ca3660046112dd565b6105a0565b3480156101db57600080fd5b506101626101ea3660046113a1565b610667565b3480156101fb57600080fd5b5061020461075f565b604051908152602001610139565b34801561021e57600080fd5b506102047f000000000000000000000000000000000000000000000000000000000000000081565b34801561025257600080fd5b506101626102613660046113a1565b610812565b34801561027257600080fd5b506101626102813660046113a1565b6109d3565b34801561029257600080fd5b506102046102a1366004611271565b60676020526000908152604090205481565b3480156102bf57600080fd5b506102046102ce366004611271565b60686020526000908152604090205481565b6102f36102ee3660046113ba565b610b70565b604051610139919061147f565b34801561030c57600080fd5b5061018461031b3660046113a1565b6069602052600090815260409020546001600160a01b031681565b34801561034257600080fd5b506101626103513660046113a1565b610c66565b34801561036257600080fd5b50606554610184906001600160a01b031681565b6001600160a01b037f00000000000000000000000000000000000000000000000000000000000000001630036103c75760405162461bcd60e51b81526004016103be906114e1565b60405180910390fd5b7f00000000000000000000000000000000000000000000000000000000000000006001600160a01b0316610410600080516020611698833981519152546001600160a01b031690565b6001600160a01b0316146104365760405162461bcd60e51b81526004016103be9061152d565b6040805160008082526020820190925261045291839190610d8f565b50565b600054610100900460ff16158080156104755750600054600160ff909116105b8061048f5750303b15801561048f575060005460ff166001145b6104f25760405162461bcd60e51b815260206004820152602e60248201527f496e697469616c697a61626c653a20636f6e747261637420697320616c72656160448201526d191e481a5b9a5d1a585b1a5e995960921b60648201526084016103be565b6000805460ff191660011790558015610515576000805461ff0019166101001790555b61051d610efa565b610525610efa565b606580546001600160a01b038086166001600160a01b0319928316179092556066805492851692909116919091179055801561059b576000805461ff0019169055604051600181527f7f26b83ff96e1f2b6a682f133852f6798a09c465da95921460cefb38474024989060200160405180910390a15b505050565b6001600160a01b037f00000000000000000000000000000000000000000000000000000000000000001630036105e85760405162461bcd60e51b81526004016103be906114e1565b7f00000000000000000000000000000000000000000000000000000000000000006001600160a01b0316610631600080516020611698833981519152546001600160a01b031690565b6001600160a01b0316146106575760405162461bcd60e51b81526004016103be9061152d565b61066382826001610d8f565b5050565b33600090815260686020908152604080832054606790925290912054829161068e9161158f565b106106d35760405162461bcd60e51b8152602060048201526015602482015274139bdd08195b9bdd59da0818dbdb1b185d195c985b605a1b60448201526064016103be565b33600090815260686020526040812080548392906106f29084906115a2565b9091555050606554604051630f38ca0d60e31b8152336004820152602481018390526001600160a01b03909116906379c65068906044015b600060405180830381600087803b15801561074457600080fd5b505af1158015610758573d6000803e3d6000fd5b5050505050565b6000306001600160a01b037f000000000000000000000000000000000000000000000000000000000000000016146107ff5760405162461bcd60e51b815260206004820152603860248201527f555550535570677261646561626c653a206d757374206e6f742062652063616c60448201527f6c6564207468726f7567682064656c656761746563616c6c000000000000000060648201526084016103be565b5060008051602061169883398151915290565b336000908152606860209081526040808320546067909252909120547f0000000000000000000000000000000000000000000000000000000000000000916108599161158f565b10156108a05760405162461bcd60e51b8152602060048201526016602482015275436f6c6c61746572616c20756e617661696c61626c6560501b60448201526064016103be565b6000818152606960205260409020546001600160a01b031633146109065760405162461bcd60e51b815260206004820152601a60248201527f4944206e6f74206465706f73697465642062792063616c6c657200000000000060448201526064016103be565b606654604051632142170760e11b8152306004820152336024820152604481018390526001600160a01b03909116906342842e0e90606401600060405180830381600087803b15801561095857600080fd5b505af115801561096c573d6000803e3d6000fd5b505033600090815260676020526040812080547f000000000000000000000000000000000000000000000000000000000000000094509092506109b090849061158f565b9091555050600090815260696020526040902080546001600160a01b0319169055565b6066546040516331a9108f60e11b81526004810183905233916001600160a01b031690636352211e90602401602060405180830381865afa158015610a1c573d6000803e3d6000fd5b505050506040513d601f19601f82011682018060405250810190610a4091906115b5565b6001600160a01b031614610aa15760405162461bcd60e51b815260206004820152602260248201527f43616c6c6572206973206e6f7420746865206f776e6572206f6620746865204e604482015261119560f21b60648201526084016103be565b606654604051632142170760e11b8152336004820152306024820152604481018390526001600160a01b03909116906342842e0e90606401600060405180830381600087803b158015610af357600080fd5b505af1158015610b07573d6000803e3d6000fd5b505033600090815260676020526040812080547f00000000000000000000000000000000000000000000000000000000000000009450909250610b4b9084906115a2565b9091555050600090815260696020526040902080546001600160a01b03191633179055565b60608167ffffffffffffffff811115610b8b57610b8b6112c7565b604051908082528060200260200182016040528015610bbe57816020015b6060815260200190600190039081610ba95790505b50905060005b82811015610c5e57610c2e30858584818110610be257610be26115d2565b9050602002810190610bf491906115e8565b8080601f016020809104026020016040519081016040528093929190818152602001838380828437600092019190915250610f6792505050565b828281518110610c4057610c406115d2565b60200260200101819052508080610c5690611636565b915050610bc4565b505b92915050565b33600090815260686020526040902054811115610cbd5760405162461bcd60e51b8152602060048201526015602482015274139bdd08195b9bdd59da0818dbdb1b185d195c985b605a1b60448201526064016103be565b6065546040516370a0823160e01b815233600482015282916001600160a01b0316906370a0823190602401602060405180830381865afa158015610d05573d6000803e3d6000fd5b505050506040513d601f19601f82011682018060405250810190610d29919061164f565b1015610d3457600080fd5b3360009081526068602052604081208054839290610d539084906115a2565b9091555050606554604051633477cc1b60e21b8152336004820152602481018390526001600160a01b039091169063d1df306c9060440161072a565b7f4910fdfa16fed3260ed0e7147f7cc6da11a60208b5b9406d12a635614ffd91435460ff1615610dc25761059b83610f93565b826001600160a01b03166352d1902d6040518163ffffffff1660e01b8152600401602060405180830381865afa925050508015610e1c575060408051601f3d908101601f19168201909252610e199181019061164f565b60015b610e7f5760405162461bcd60e51b815260206004820152602e60248201527f45524331393637557067726164653a206e657720696d706c656d656e7461746960448201526d6f6e206973206e6f74205555505360901b60648201526084016103be565b6000805160206116988339815191528114610eee5760405162461bcd60e51b815260206004820152602960248201527f45524331393637557067726164653a20756e737570706f727465642070726f786044820152681a58589b195555525160ba1b60648201526084016103be565b5061059b83838361102f565b600054610100900460ff16610f655760405162461bcd60e51b815260206004820152602b60248201527f496e697469616c697a61626c653a20636f6e7472616374206973206e6f74206960448201526a6e697469616c697a696e6760a81b60648201526084016103be565b565b6060610f8c83836040518060600160405280602781526020016116b86027913961105a565b9392505050565b6001600160a01b0381163b6110005760405162461bcd60e51b815260206004820152602d60248201527f455243313936373a206e657720696d706c656d656e746174696f6e206973206e60448201526c1bdd08184818dbdb9d1c9858dd609a1b60648201526084016103be565b60008051602061169883398151915280546001600160a01b0319166001600160a01b0392909216919091179055565b611038836110d2565b6000825111806110455750805b1561059b576110548383610f67565b50505050565b6060600080856001600160a01b0316856040516110779190611668565b600060405180830381855af49150503d80600081146110b2576040519150601f19603f3d011682016040523d82523d6000602084013e6110b7565b606091505b50915091506110c886838387611112565b9695505050505050565b6110db81610f93565b6040516001600160a01b038216907fbc7cd75a20ee27fd9adebab32041f755214dbc6bffa90cc0225b39da2e5c2d3b90600090a250565b6060831561118157825160000361117a576001600160a01b0385163b61117a5760405162461bcd60e51b815260206004820152601d60248201527f416464726573733a2063616c6c20746f206e6f6e2d636f6e747261637400000060448201526064016103be565b508161118b565b61118b8383611193565b949350505050565b8151156111a35781518083602001fd5b8060405162461bcd60e51b81526004016103be9190611684565b6001600160a01b038116811461045257600080fd5b6000806000806000608086880312156111ea57600080fd5b85356111f5816111bd565b94506020860135611205816111bd565b935060408601359250606086013567ffffffffffffffff8082111561122957600080fd5b818801915088601f83011261123d57600080fd5b81358181111561124c57600080fd5b89602082850101111561125e57600080fd5b9699959850939650602001949392505050565b60006020828403121561128357600080fd5b8135610f8c816111bd565b600080604083850312156112a157600080fd5b82356112ac816111bd565b915060208301356112bc816111bd565b809150509250929050565b634e487b7160e01b600052604160045260246000fd5b600080604083850312156112f057600080fd5b82356112fb816111bd565b9150602083013567ffffffffffffffff8082111561131857600080fd5b818501915085601f83011261132c57600080fd5b81358181111561133e5761133e6112c7565b604051601f8201601f19908116603f01168101908382118183101715611366576113666112c7565b8160405282815288602084870101111561137f57600080fd5b8260208601602083013760006020848301015280955050505050509250929050565b6000602082840312156113b357600080fd5b5035919050565b600080602083850312156113cd57600080fd5b823567ffffffffffffffff808211156113e557600080fd5b818501915085601f8301126113f957600080fd5b81358181111561140857600080fd5b8660208260051b850101111561141d57600080fd5b60209290920196919550909350505050565b60005b8381101561144a578181015183820152602001611432565b50506000910152565b6000815180845261146b81602086016020860161142f565b601f01601f19169290920160200192915050565b6000602080830181845280855180835260408601915060408160051b870101925083870160005b828110156114d457603f198886030184526114c2858351611453565b945092850192908501906001016114a6565b5092979650505050505050565b6020808252602c908201527f46756e6374696f6e206d7573742062652063616c6c6564207468726f7567682060408201526b19195b1959d85d1958d85b1b60a21b606082015260800190565b6020808252602c908201527f46756e6374696f6e206d7573742062652063616c6c6564207468726f7567682060408201526b6163746976652070726f787960a01b606082015260800190565b634e487b7160e01b600052601160045260246000fd5b81810381811115610c6057610c60611579565b80820180821115610c6057610c60611579565b6000602082840312156115c757600080fd5b8151610f8c816111bd565b634e487b7160e01b600052603260045260246000fd5b6000808335601e198436030181126115ff57600080fd5b83018035915067ffffffffffffffff82111561161a57600080fd5b60200191503681900382131561162f57600080fd5b9250929050565b60006001820161164857611648611579565b5060010190565b60006020828403121561166157600080fd5b5051919050565b6000825161167a81846020870161142f565b9190910192915050565b602081526000610f8c602083018461145356fe360894a13ba1a3210667c828492db98dca3e2076cc3735a920a3ca505d382bbc416464726573733a206c6f772d6c6576656c2064656c65676174652063616c6c206661696c6564a264697066735822122051b718513193b85b674f5fc7418282d0dab50db86551c28556fb9750509bdc4464736f6c63430008150033","linkReferences":{}},"methodIdentifiers":{"collateralPrice()":"5891de72","depositNFTCollateral(uint256)":"647fd8ef","getLoan(uint256)":"504006ca","idsCollateral(uint256)":"d52c1db2","initialize(address,address)":"485cc955","multicall(bytes[])":"ac9650d8","nft()":"47ccca02","onERC721Received(address,address,uint256,bytes)":"150b7a02","proxiableUUID()":"52d1902d","returnLoan(uint256)":"e9126154","token()":"fc0c546a","totalCollateral(address)":"7e059b22","upgradeTo(address)":"3659cfe6","upgradeToAndCall(address,bytes)":"4f1ef286","usedCollateral(address)":"90f20d15","withdrawCollateral(uint256)":"6112fe2e"},"id":51}